{
  "contractName": "RiceMarket",
  "abi": [
    {
      "inputs": [
        {
          "internalType": "string",
          "name": "_uri",
          "type": "string"
        },
        {
          "internalType": "address",
          "name": "_RICE",
          "type": "address"
        }
      ],
      "stateMutability": "nonpayable",
      "type": "constructor"
    },
    {
      "anonymous": false,
      "inputs": [
        {
          "indexed": true,
          "internalType": "address",
          "name": "account",
          "type": "address"
        },
        {
          "indexed": true,
          "internalType": "address",
          "name": "operator",
          "type": "address"
        },
        {
          "indexed": false,
          "internalType": "bool",
          "name": "approved",
          "type": "bool"
        }
      ],
      "name": "ApprovalForAll",
      "type": "event"
    },
    {
      "anonymous": false,
      "inputs": [
        {
          "indexed": false,
          "internalType": "uint256",
          "name": "ID",
          "type": "uint256"
        },
        {
          "indexed": false,
          "internalType": "uint256",
          "name": "ammount",
          "type": "uint256"
        }
      ],
      "name": "Drop",
      "type": "event"
    },
    {
      "anonymous": false,
      "inputs": [
        {
          "indexed": true,
          "internalType": "address",
          "name": "previousOwner",
          "type": "address"
        },
        {
          "indexed": true,
          "internalType": "address",
          "name": "newOwner",
          "type": "address"
        }
      ],
      "name": "OwnershipTransferred",
      "type": "event"
    },
    {
      "anonymous": false,
      "inputs": [
        {
          "indexed": false,
          "internalType": "uint256",
          "name": "ID",
          "type": "uint256"
        },
        {
          "indexed": false,
          "internalType": "uint256",
          "name": "price",
          "type": "uint256"
        }
      ],
      "name": "Purchase",
      "type": "event"
    },
    {
      "anonymous": false,
      "inputs": [
        {
          "indexed": true,
          "internalType": "address",
          "name": "operator",
          "type": "address"
        },
        {
          "indexed": true,
          "internalType": "address",
          "name": "from",
          "type": "address"
        },
        {
          "indexed": true,
          "internalType": "address",
          "name": "to",
          "type": "address"
        },
        {
          "indexed": false,
          "internalType": "uint256[]",
          "name": "ids",
          "type": "uint256[]"
        },
        {
          "indexed": false,
          "internalType": "uint256[]",
          "name": "values",
          "type": "uint256[]"
        }
      ],
      "name": "TransferBatch",
      "type": "event"
    },
    {
      "anonymous": false,
      "inputs": [
        {
          "indexed": true,
          "internalType": "address",
          "name": "operator",
          "type": "address"
        },
        {
          "indexed": true,
          "internalType": "address",
          "name": "from",
          "type": "address"
        },
        {
          "indexed": true,
          "internalType": "address",
          "name": "to",
          "type": "address"
        },
        {
          "indexed": false,
          "internalType": "uint256",
          "name": "id",
          "type": "uint256"
        },
        {
          "indexed": false,
          "internalType": "uint256",
          "name": "value",
          "type": "uint256"
        }
      ],
      "name": "TransferSingle",
      "type": "event"
    },
    {
      "anonymous": false,
      "inputs": [
        {
          "indexed": false,
          "internalType": "string",
          "name": "value",
          "type": "string"
        },
        {
          "indexed": true,
          "internalType": "uint256",
          "name": "id",
          "type": "uint256"
        }
      ],
      "name": "URI",
      "type": "event"
    },
    {
      "inputs": [],
      "name": "RICE",
      "outputs": [
        {
          "internalType": "contract IRICE",
          "name": "",
          "type": "address"
        }
      ],
      "stateMutability": "view",
      "type": "function",
      "constant": true
    },
    {
      "inputs": [
        {
          "internalType": "address",
          "name": "account",
          "type": "address"
        },
        {
          "internalType": "uint256",
          "name": "id",
          "type": "uint256"
        }
      ],
      "name": "balanceOf",
      "outputs": [
        {
          "internalType": "uint256",
          "name": "",
          "type": "uint256"
        }
      ],
      "stateMutability": "view",
      "type": "function",
      "constant": true
    },
    {
      "inputs": [
        {
          "internalType": "address[]",
          "name": "accounts",
          "type": "address[]"
        },
        {
          "internalType": "uint256[]",
          "name": "ids",
          "type": "uint256[]"
        }
      ],
      "name": "balanceOfBatch",
      "outputs": [
        {
          "internalType": "uint256[]",
          "name": "",
          "type": "uint256[]"
        }
      ],
      "stateMutability": "view",
      "type": "function",
      "constant": true
    },
    {
      "inputs": [
        {
          "internalType": "address",
          "name": "account",
          "type": "address"
        },
        {
          "internalType": "address",
          "name": "operator",
          "type": "address"
        }
      ],
      "name": "isApprovedForAll",
      "outputs": [
        {
          "internalType": "bool",
          "name": "",
          "type": "bool"
        }
      ],
      "stateMutability": "view",
      "type": "function",
      "constant": true
    },
    {
      "inputs": [],
      "name": "latest",
      "outputs": [
        {
          "internalType": "uint256",
          "name": "",
          "type": "uint256"
        }
      ],
      "stateMutability": "view",
      "type": "function",
      "constant": true
    },
    {
      "inputs": [],
      "name": "owner",
      "outputs": [
        {
          "internalType": "address",
          "name": "",
          "type": "address"
        }
      ],
      "stateMutability": "view",
      "type": "function",
      "constant": true
    },
    {
      "inputs": [],
      "name": "renounceOwnership",
      "outputs": [],
      "stateMutability": "nonpayable",
      "type": "function"
    },
    {
      "inputs": [
        {
          "internalType": "address",
          "name": "from",
          "type": "address"
        },
        {
          "internalType": "address",
          "name": "to",
          "type": "address"
        },
        {
          "internalType": "uint256[]",
          "name": "ids",
          "type": "uint256[]"
        },
        {
          "internalType": "uint256[]",
          "name": "amounts",
          "type": "uint256[]"
        },
        {
          "internalType": "bytes",
          "name": "data",
          "type": "bytes"
        }
      ],
      "name": "safeBatchTransferFrom",
      "outputs": [],
      "stateMutability": "nonpayable",
      "type": "function"
    },
    {
      "inputs": [
        {
          "internalType": "address",
          "name": "from",
          "type": "address"
        },
        {
          "internalType": "address",
          "name": "to",
          "type": "address"
        },
        {
          "internalType": "uint256",
          "name": "id",
          "type": "uint256"
        },
        {
          "internalType": "uint256",
          "name": "amount",
          "type": "uint256"
        },
        {
          "internalType": "bytes",
          "name": "data",
          "type": "bytes"
        }
      ],
      "name": "safeTransferFrom",
      "outputs": [],
      "stateMutability": "nonpayable",
      "type": "function"
    },
    {
      "inputs": [
        {
          "internalType": "address",
          "name": "operator",
          "type": "address"
        },
        {
          "internalType": "bool",
          "name": "approved",
          "type": "bool"
        }
      ],
      "name": "setApprovalForAll",
      "outputs": [],
      "stateMutability": "nonpayable",
      "type": "function"
    },
    {
      "inputs": [
        {
          "internalType": "bytes4",
          "name": "interfaceId",
          "type": "bytes4"
        }
      ],
      "name": "supportsInterface",
      "outputs": [
        {
          "internalType": "bool",
          "name": "",
          "type": "bool"
        }
      ],
      "stateMutability": "view",
      "type": "function",
      "constant": true
    },
    {
      "inputs": [
        {
          "internalType": "address",
          "name": "newOwner",
          "type": "address"
        }
      ],
      "name": "transferOwnership",
      "outputs": [],
      "stateMutability": "nonpayable",
      "type": "function"
    },
    {
      "inputs": [
        {
          "internalType": "uint256",
          "name": "",
          "type": "uint256"
        }
      ],
      "name": "uri",
      "outputs": [
        {
          "internalType": "string",
          "name": "",
          "type": "string"
        }
      ],
      "stateMutability": "view",
      "type": "function",
      "constant": true
    },
    {
      "inputs": [
        {
          "internalType": "string",
          "name": "_new",
          "type": "string"
        }
      ],
      "name": "updateURI",
      "outputs": [],
      "stateMutability": "nonpayable",
      "type": "function"
    },
    {
      "inputs": [
        {
          "internalType": "uint128",
          "name": "_ammount",
          "type": "uint128"
        },
        {
          "internalType": "uint256",
          "name": "_startPrice",
          "type": "uint256"
        },
        {
          "internalType": "uint256",
          "name": "_endPrice",
          "type": "uint256"
        }
      ],
      "name": "drop",
      "outputs": [],
      "stateMutability": "nonpayable",
      "type": "function"
    },
    {
      "inputs": [
        {
          "internalType": "uint256",
          "name": "ID",
          "type": "uint256"
        }
      ],
      "name": "buy",
      "outputs": [],
      "stateMutability": "nonpayable",
      "type": "function"
    },
    {
      "inputs": [
        {
          "internalType": "uint256",
          "name": "ID",
          "type": "uint256"
        }
      ],
      "name": "getPrice",
      "outputs": [
        {
          "internalType": "uint256",
          "name": "",
          "type": "uint256"
        }
      ],
      "stateMutability": "view",
      "type": "function",
      "constant": true
    },
    {
      "inputs": [
        {
          "internalType": "uint256",
          "name": "ID",
          "type": "uint256"
        }
      ],
      "name": "isAvailable",
      "outputs": [
        {
          "internalType": "bool",
          "name": "",
          "type": "bool"
        }
      ],
      "stateMutability": "view",
      "type": "function",
      "constant": true
    }
  ],
  "bytecode": "0x60806040523480156200001157600080fd5b5060405162003eeb38038062003eeb8339818101604052810190620000379190620002a9565b8162000049816200014c60201b60201c565b5060006200005c6200016860201b60201c565b905080600360006101000a81548173ffffffffffffffffffffffffffffffffffffffff021916908373ffffffffffffffffffffffffffffffffffffffff1602179055508073ffffffffffffffffffffffffffffffffffffffff16600073ffffffffffffffffffffffffffffffffffffffff167f8be0079c531659141344cd1fd0a4f28419497f9722a3daafe3b4186f6b6457e060405160405180910390a35080600460006101000a81548173ffffffffffffffffffffffffffffffffffffffff021916908373ffffffffffffffffffffffffffffffffffffffff16021790555060006005819055505050620004c1565b80600290805190602001906200016492919062000170565b5050565b600033905090565b8280546200017e90620003cc565b90600052602060002090601f016020900481019282620001a25760008555620001ee565b82601f10620001bd57805160ff1916838001178555620001ee565b82800160010185558215620001ee579182015b82811115620001ed578251825591602001919060010190620001d0565b5b509050620001fd919062000201565b5090565b5b808211156200021c57600081600090555060010162000202565b5090565b60006200023762000231846200032c565b62000303565b9050828152602081018484840111156200025057600080fd5b6200025d84828562000396565b509392505050565b6000815190506200027681620004a7565b92915050565b600082601f8301126200028e57600080fd5b8151620002a084826020860162000220565b91505092915050565b60008060408385031215620002bd57600080fd5b600083015167ffffffffffffffff811115620002d857600080fd5b620002e6858286016200027c565b9250506020620002f98582860162000265565b9150509250929050565b60006200030f62000322565b90506200031d828262000402565b919050565b6000604051905090565b600067ffffffffffffffff8211156200034a576200034962000467565b5b620003558262000496565b9050602081019050919050565b60006200036f8262000376565b9050919050565b600073ffffffffffffffffffffffffffffffffffffffff82169050919050565b60005b83811015620003b657808201518184015260208101905062000399565b83811115620003c6576000848401525b50505050565b60006002820490506001821680620003e557607f821691505b60208210811415620003fc57620003fb62000438565b5b50919050565b6200040d8262000496565b810181811067ffffffffffffffff821117156200042f576200042e62000467565b5b80604052505050565b7f4e487b7100000000000000000000000000000000000000000000000000000000600052602260045260246000fd5b7f4e487b7100000000000000000000000000000000000000000000000000000000600052604160045260246000fd5b6000601f19601f8301169050919050565b620004b28162000362565b8114620004be57600080fd5b50565b613a1a80620004d16000396000f3fe608060405234801561001057600080fd5b50600436106101155760003560e01c80638da5cb5b116100a2578063d96a094a11610071578063d96a094a146102de578063e7572230146102fa578063e985e9c51461032a578063f242432a1461035a578063f2fde38b1461037657610115565b80638da5cb5b1461026a578063a22cb46514610288578063c30f4a5a146102a4578063c7c3c48b146102c057610115565b80633a178d99116100e95780633a178d99146101c65780634cc223d5146101f65780634e1273f41461021257806352bfe78914610242578063715018a61461026057610115565b8062fdd58e1461011a57806301ffc9a71461014a5780630e89341c1461017a5780632eb2c2d6146101aa575b600080fd5b610134600480360381019061012f91906125ec565b610392565b6040516101419190612ec8565b60405180910390f35b610164600480360381019061015f9190612694565b61045b565b6040516101719190612c70565b60405180910390f35b610194600480360381019061018f9190612776565b61053d565b6040516101a19190612ca6565b60405180910390f35b6101c460048036038101906101bf9190612462565b6105d1565b005b6101e060048036038101906101db9190612776565b6109c7565b6040516101ed9190612c70565b60405180910390f35b610210600480360381019061020b9190612727565b6109ea565b005b61022c60048036038101906102279190612628565b610c75565b6040516102399190612c17565b60405180910390f35b61024a610e26565b6040516102579190612ec8565b60405180910390f35b610268610e2c565b005b610272610f69565b60405161027f9190612b11565b60405180910390f35b6102a2600480360381019061029d91906125b0565b610f93565b005b6102be60048036038101906102b991906126e6565b611114565b005b6102c861119c565b6040516102d59190612c8b565b60405180910390f35b6102f860048036038101906102f39190612776565b6111c2565b005b610314600480360381019061030f9190612776565b611379565b6040516103219190612ec8565b60405180910390f35b610344600480360381019061033f9190612426565b6114b7565b6040516103519190612c70565b60405180910390f35b610374600480360381019061036f9190612521565b61154b565b005b610390600480360381019061038b91906123fd565b611863565b005b60008073ffffffffffffffffffffffffffffffffffffffff168373ffffffffffffffffffffffffffffffffffffffff161415610403576040517f08c379a00000000000000000000000000000000000000000000000000000000081526004016103fa90612d28565b60405180910390fd5b60008083815260200190815260200160002060008473ffffffffffffffffffffffffffffffffffffffff1673ffffffffffffffffffffffffffffffffffffffff16815260200190815260200160002054905092915050565b60007fd9b67a26000000000000000000000000000000000000000000000000000000007bffffffffffffffffffffffffffffffffffffffffffffffffffffffff1916827bffffffffffffffffffffffffffffffffffffffffffffffffffffffff1916148061052657507f0e89341c000000000000000000000000000000000000000000000000000000007bffffffffffffffffffffffffffffffffffffffffffffffffffffffff1916827bffffffffffffffffffffffffffffffffffffffffffffffffffffffff1916145b80610536575061053582611a0f565b5b9050919050565b60606002805461054c906132a2565b80601f0160208091040260200160405190810160405280929190818152602001828054610578906132a2565b80156105c55780601f1061059a576101008083540402835291602001916105c5565b820191906000526020600020905b8154815290600101906020018083116105a857829003601f168201915b50505050509050919050565b8151835114610615576040517f08c379a000000000000000000000000000000000000000000000000000000000815260040161060c90612e88565b60405180910390fd5b600073ffffffffffffffffffffffffffffffffffffffff168473ffffffffffffffffffffffffffffffffffffffff161415610685576040517f08c379a000000000000000000000000000000000000000000000000000000000815260040161067c90612d88565b60405180910390fd5b61068d611a79565b73ffffffffffffffffffffffffffffffffffffffff168573ffffffffffffffffffffffffffffffffffffffff1614806106d357506106d2856106cd611a79565b6114b7565b5b610712576040517f08c379a000000000000000000000000000000000000000000000000000000000815260040161070990612da8565b60405180910390fd5b600061071c611a79565b905061072c818787878787611a81565b60005b8451811015610932576000858281518110610773577f4e487b7100000000000000000000000000000000000000000000000000000000600052603260045260246000fd5b6020026020010151905060008583815181106107b8577f4e487b7100000000000000000000000000000000000000000000000000000000600052603260045260246000fd5b60200260200101519050600080600084815260200190815260200160002060008b73ffffffffffffffffffffffffffffffffffffffff1673ffffffffffffffffffffffffffffffffffffffff16815260200190815260200160002054905081811015610859576040517f08c379a000000000000000000000000000000000000000000000000000000000815260040161085090612dc8565b60405180910390fd5b81816108659190613166565b60008085815260200190815260200160002060008c73ffffffffffffffffffffffffffffffffffffffff1673ffffffffffffffffffffffffffffffffffffffff168152602001908152602001600020819055508160008085815260200190815260200160002060008b73ffffffffffffffffffffffffffffffffffffffff1673ffffffffffffffffffffffffffffffffffffffff16815260200190815260200160002060008282546109179190613085565b925050819055505050508061092b9061333e565b905061072f565b508473ffffffffffffffffffffffffffffffffffffffff168673ffffffffffffffffffffffffffffffffffffffff168273ffffffffffffffffffffffffffffffffffffffff167f4a39dc06d4c0dbc64b70af90fd698a233a518aa5d07e595d983b8c0526c8f7fb87876040516109a9929190612c39565b60405180910390a46109bf818787878787611a89565b505050505050565b6000806109d43084610392565b116109e05760006109e3565b60015b9050919050565b6109f2611a79565b73ffffffffffffffffffffffffffffffffffffffff16610a10610f69565b73ffffffffffffffffffffffffffffffffffffffff1614610a66576040517f08c379a0000000000000000000000000000000000000000000000000000000008152600401610a5d90612e08565b60405180910390fd5b818111610aa8576040517f08c379a0000000000000000000000000000000000000000000000000000000008152600401610a9f90612d08565b60405180910390fd5b6000836fffffffffffffffffffffffffffffffff161415610afe576040517f08c379a0000000000000000000000000000000000000000000000000000000008152600401610af590612de8565b60405180910390fd5b60056000815480929190610b119061333e565b91905055506040518060800160405280838152602001828152602001846fffffffffffffffffffffffffffffffff16815260200160006fffffffffffffffffffffffffffffffff16815250600660006005548152602001908152602001600020600082015181600001556020820151816001015560408201518160020160006101000a8154816fffffffffffffffffffffffffffffffff02191690836fffffffffffffffffffffffffffffffff16021790555060608201518160020160106101000a8154816fffffffffffffffffffffffffffffffff02191690836fffffffffffffffffffffffffffffffff160217905550905050610c3530600554856fffffffffffffffffffffffffffffffff1660405180602001604052806000815250611c70565b7f0477655049b4800acdb79aa39ea5007fca13cc594ca915deb4e9aa99d812553160055484604051610c68929190612ee3565b60405180910390a1505050565b60608151835114610cbb576040517f08c379a0000000000000000000000000000000000000000000000000000000008152600401610cb290612e68565b60405180910390fd5b6000835167ffffffffffffffff811115610cfe577f4e487b7100000000000000000000000000000000000000000000000000000000600052604160045260246000fd5b604051908082528060200260200182016040528015610d2c5781602001602082028036833780820191505090505b50905060005b8451811015610e1b57610dc5858281518110610d77577f4e487b7100000000000000000000000000000000000000000000000000000000600052603260045260246000fd5b6020026020010151858381518110610db8577f4e487b7100000000000000000000000000000000000000000000000000000000600052603260045260246000fd5b6020026020010151610392565b828281518110610dfe577f4e487b7100000000000000000000000000000000000000000000000000000000600052603260045260246000fd5b60200260200101818152505080610e149061333e565b9050610d32565b508091505092915050565b60055481565b610e34611a79565b73ffffffffffffffffffffffffffffffffffffffff16610e52610f69565b73ffffffffffffffffffffffffffffffffffffffff1614610ea8576040517f08c379a0000000000000000000000000000000000000000000000000000000008152600401610e9f90612e08565b60405180910390fd5b600073ffffffffffffffffffffffffffffffffffffffff16600360009054906101000a900473ffffffffffffffffffffffffffffffffffffffff1673ffffffffffffffffffffffffffffffffffffffff167f8be0079c531659141344cd1fd0a4f28419497f9722a3daafe3b4186f6b6457e060405160405180910390a36000600360006101000a81548173ffffffffffffffffffffffffffffffffffffffff021916908373ffffffffffffffffffffffffffffffffffffffff160217905550565b6000600360009054906101000a900473ffffffffffffffffffffffffffffffffffffffff16905090565b8173ffffffffffffffffffffffffffffffffffffffff16610fb2611a79565b73ffffffffffffffffffffffffffffffffffffffff161415611009576040517f08c379a000000000000000000000000000000000000000000000000000000000815260040161100090612e48565b60405180910390fd5b8060016000611016611a79565b73ffffffffffffffffffffffffffffffffffffffff1673ffffffffffffffffffffffffffffffffffffffff16815260200190815260200160002060008473ffffffffffffffffffffffffffffffffffffffff1673ffffffffffffffffffffffffffffffffffffffff16815260200190815260200160002060006101000a81548160ff0219169083151502179055508173ffffffffffffffffffffffffffffffffffffffff166110c3611a79565b73ffffffffffffffffffffffffffffffffffffffff167f17307eab39ab6107e8899845ad3d59bd9653f200f220920489ca2b5937696c31836040516111089190612c70565b60405180910390a35050565b61111c611a79565b73ffffffffffffffffffffffffffffffffffffffff1661113a610f69565b73ffffffffffffffffffffffffffffffffffffffff1614611190576040517f08c379a000000000000000000000000000000000000000000000000000000000815260040161118790612e08565b60405180910390fd5b61119981611e06565b50565b600460009054906101000a900473ffffffffffffffffffffffffffffffffffffffff1681565b6111cb816109c7565b61120a576040517f08c379a000000000000000000000000000000000000000000000000000000000815260040161120190612e28565b60405180910390fd5b600061121582611379565b9050600460009054906101000a900473ffffffffffffffffffffffffffffffffffffffff1673ffffffffffffffffffffffffffffffffffffffff1663af7d6ca333836040518363ffffffff1660e01b8152600401611274929190612bee565b600060405180830381600087803b15801561128e57600080fd5b505af11580156112a2573d6000803e3d6000fd5b5050505060066000838152602001908152602001600020600201601081819054906101000a90046fffffffffffffffffffffffffffffffff16809291906112e890613305565b91906101000a8154816fffffffffffffffffffffffffffffffff02191690836fffffffffffffffffffffffffffffffff1602179055505061133c30338460016040518060200160405280600081525061154b565b7f350df6fcc944b226b77efc36902e19b43c566d75173622086e809d46dfbc2220828260405161136d929190612f0c565b60405180910390a15050565b6000806006600084815260200190815260200160002060405180608001604052908160008201548152602001600182015481526020016002820160009054906101000a90046fffffffffffffffffffffffffffffffff166fffffffffffffffffffffffffffffffff166fffffffffffffffffffffffffffffffff1681526020016002820160109054906101000a90046fffffffffffffffffffffffffffffffff166fffffffffffffffffffffffffffffffff166fffffffffffffffffffffffffffffffff16815250509050600081604001516fffffffffffffffffffffffffffffffff16826000015161146c91906130db565b826020015161147b9190613166565b905081606001516fffffffffffffffffffffffffffffffff168161149f919061310c565b82600001516114ae9190613085565b92505050919050565b6000600160008473ffffffffffffffffffffffffffffffffffffffff1673ffffffffffffffffffffffffffffffffffffffff16815260200190815260200160002060008373ffffffffffffffffffffffffffffffffffffffff1673ffffffffffffffffffffffffffffffffffffffff16815260200190815260200160002060009054906101000a900460ff16905092915050565b600073ffffffffffffffffffffffffffffffffffffffff168473ffffffffffffffffffffffffffffffffffffffff1614156115bb576040517f08c379a00000000000000000000000000000000000000000000000000000000081526004016115b290612d88565b60405180910390fd5b6115c3611a79565b73ffffffffffffffffffffffffffffffffffffffff168573ffffffffffffffffffffffffffffffffffffffff161480611609575061160885611603611a79565b6114b7565b5b611648576040517f08c379a000000000000000000000000000000000000000000000000000000000815260040161163f90612d68565b60405180910390fd5b6000611652611a79565b905061167281878761166388611e20565b61166c88611e20565b87611a81565b600080600086815260200190815260200160002060008873ffffffffffffffffffffffffffffffffffffffff1673ffffffffffffffffffffffffffffffffffffffff16815260200190815260200160002054905083811015611709576040517f08c379a000000000000000000000000000000000000000000000000000000000815260040161170090612dc8565b60405180910390fd5b83816117159190613166565b60008087815260200190815260200160002060008973ffffffffffffffffffffffffffffffffffffffff1673ffffffffffffffffffffffffffffffffffffffff168152602001908152602001600020819055508360008087815260200190815260200160002060008873ffffffffffffffffffffffffffffffffffffffff1673ffffffffffffffffffffffffffffffffffffffff16815260200190815260200160002060008282546117c79190613085565b925050819055508573ffffffffffffffffffffffffffffffffffffffff168773ffffffffffffffffffffffffffffffffffffffff168373ffffffffffffffffffffffffffffffffffffffff167fc3d58168c5ae7397731d063d5bbf3d657854427343f4c083240f7aacaa2d0f628888604051611844929190612f0c565b60405180910390a461185a828888888888611ee6565b50505050505050565b61186b611a79565b73ffffffffffffffffffffffffffffffffffffffff16611889610f69565b73ffffffffffffffffffffffffffffffffffffffff16146118df576040517f08c379a00000000000000000000000000000000000000000000000000000000081526004016118d690612e08565b60405180910390fd5b600073ffffffffffffffffffffffffffffffffffffffff168173ffffffffffffffffffffffffffffffffffffffff16141561194f576040517f08c379a000000000000000000000000000000000000000000000000000000000815260040161194690612d48565b60405180910390fd5b8073ffffffffffffffffffffffffffffffffffffffff16600360009054906101000a900473ffffffffffffffffffffffffffffffffffffffff1673ffffffffffffffffffffffffffffffffffffffff167f8be0079c531659141344cd1fd0a4f28419497f9722a3daafe3b4186f6b6457e060405160405180910390a380600360006101000a81548173ffffffffffffffffffffffffffffffffffffffff021916908373ffffffffffffffffffffffffffffffffffffffff16021790555050565b60007f01ffc9a7000000000000000000000000000000000000000000000000000000007bffffffffffffffffffffffffffffffffffffffffffffffffffffffff1916827bffffffffffffffffffffffffffffffffffffffffffffffffffffffff1916149050919050565b600033905090565b505050505050565b611aa88473ffffffffffffffffffffffffffffffffffffffff166120cd565b15611c68578373ffffffffffffffffffffffffffffffffffffffff1663bc197c8187878686866040518663ffffffff1660e01b8152600401611aee959493929190612b2c565b602060405180830381600087803b158015611b0857600080fd5b505af1925050508015611b3957506040513d601f19601f82011682018060405250810190611b3691906126bd565b60015b611bdf57611b45613443565b806308c379a01415611ba25750611b5a6138db565b80611b655750611ba4565b806040517f08c379a0000000000000000000000000000000000000000000000000000000008152600401611b999190612ca6565b60405180910390fd5b505b6040517f08c379a0000000000000000000000000000000000000000000000000000000008152600401611bd690612cc8565b60405180910390fd5b63bc197c8160e01b7bffffffffffffffffffffffffffffffffffffffffffffffffffffffff1916817bffffffffffffffffffffffffffffffffffffffffffffffffffffffff191614611c66576040517f08c379a0000000000000000000000000000000000000000000000000000000008152600401611c5d90612ce8565b60405180910390fd5b505b505050505050565b600073ffffffffffffffffffffffffffffffffffffffff168473ffffffffffffffffffffffffffffffffffffffff161415611ce0576040517f08c379a0000000000000000000000000000000000000000000000000000000008152600401611cd790612ea8565b60405180910390fd5b6000611cea611a79565b9050611d0b81600087611cfc88611e20565b611d0588611e20565b87611a81565b8260008086815260200190815260200160002060008773ffffffffffffffffffffffffffffffffffffffff1673ffffffffffffffffffffffffffffffffffffffff1681526020019081526020016000206000828254611d6a9190613085565b925050819055508473ffffffffffffffffffffffffffffffffffffffff16600073ffffffffffffffffffffffffffffffffffffffff168273ffffffffffffffffffffffffffffffffffffffff167fc3d58168c5ae7397731d063d5bbf3d657854427343f4c083240f7aacaa2d0f628787604051611de8929190612f0c565b60405180910390a4611dff81600087878787611ee6565b5050505050565b8060029080519060200190611e1c9291906120e0565b5050565b60606000600167ffffffffffffffff811115611e65577f4e487b7100000000000000000000000000000000000000000000000000000000600052604160045260246000fd5b604051908082528060200260200182016040528015611e935781602001602082028036833780820191505090505b5090508281600081518110611ed1577f4e487b7100000000000000000000000000000000000000000000000000000000600052603260045260246000fd5b60200260200101818152505080915050919050565b611f058473ffffffffffffffffffffffffffffffffffffffff166120cd565b156120c5578373ffffffffffffffffffffffffffffffffffffffff1663f23a6e6187878686866040518663ffffffff1660e01b8152600401611f4b959493929190612b94565b602060405180830381600087803b158015611f6557600080fd5b505af1925050508015611f9657506040513d601f19601f82011682018060405250810190611f9391906126bd565b60015b61203c57611fa2613443565b806308c379a01415611fff5750611fb76138db565b80611fc25750612001565b806040517f08c379a0000000000000000000000000000000000000000000000000000000008152600401611ff69190612ca6565b60405180910390fd5b505b6040517f08c379a000000000000000000000000000000000000000000000000000000000815260040161203390612cc8565b60405180910390fd5b63f23a6e6160e01b7bffffffffffffffffffffffffffffffffffffffffffffffffffffffff1916817bffffffffffffffffffffffffffffffffffffffffffffffffffffffff1916146120c3576040517f08c379a00000000000000000000000000000000000000000000000000000000081526004016120ba90612ce8565b60405180910390fd5b505b505050505050565b600080823b905060008111915050919050565b8280546120ec906132a2565b90600052602060002090601f01602090048101928261210e5760008555612155565b82601f1061212757805160ff1916838001178555612155565b82800160010185558215612155579182015b82811115612154578251825591602001919060010190612139565b5b5090506121629190612166565b5090565b5b8082111561217f576000816000905550600101612167565b5090565b600061219661219184612f5a565b612f35565b905080838252602082019050828560208602820111156121b557600080fd5b60005b858110156121e557816121cb88826122d7565b8452602084019350602083019250506001810190506121b8565b5050509392505050565b60006122026121fd84612f86565b612f35565b9050808382526020820190508285602086028201111561222157600080fd5b60005b85811015612251578161223788826123e8565b845260208401935060208301925050600181019050612224565b5050509392505050565b600061226e61226984612fb2565b612f35565b90508281526020810184848401111561228657600080fd5b612291848285613260565b509392505050565b60006122ac6122a784612fe3565b612f35565b9050828152602081018484840111156122c457600080fd5b6122cf848285613260565b509392505050565b6000813590506122e681613971565b92915050565b600082601f8301126122fd57600080fd5b813561230d848260208601612183565b91505092915050565b600082601f83011261232757600080fd5b81356123378482602086016121ef565b91505092915050565b60008135905061234f81613988565b92915050565b6000813590506123648161399f565b92915050565b6000815190506123798161399f565b92915050565b600082601f83011261239057600080fd5b81356123a084826020860161225b565b91505092915050565b600082601f8301126123ba57600080fd5b81356123ca848260208601612299565b91505092915050565b6000813590506123e2816139b6565b92915050565b6000813590506123f7816139cd565b92915050565b60006020828403121561240f57600080fd5b600061241d848285016122d7565b91505092915050565b6000806040838503121561243957600080fd5b6000612447858286016122d7565b9250506020612458858286016122d7565b9150509250929050565b600080600080600060a0868803121561247a57600080fd5b6000612488888289016122d7565b9550506020612499888289016122d7565b945050604086013567ffffffffffffffff8111156124b657600080fd5b6124c288828901612316565b935050606086013567ffffffffffffffff8111156124df57600080fd5b6124eb88828901612316565b925050608086013567ffffffffffffffff81111561250857600080fd5b6125148882890161237f565b9150509295509295909350565b600080600080600060a0868803121561253957600080fd5b6000612547888289016122d7565b9550506020612558888289016122d7565b9450506040612569888289016123e8565b935050606061257a888289016123e8565b925050608086013567ffffffffffffffff81111561259757600080fd5b6125a38882890161237f565b9150509295509295909350565b600080604083850312156125c357600080fd5b60006125d1858286016122d7565b92505060206125e285828601612340565b9150509250929050565b600080604083850312156125ff57600080fd5b600061260d858286016122d7565b925050602061261e858286016123e8565b9150509250929050565b6000806040838503121561263b57600080fd5b600083013567ffffffffffffffff81111561265557600080fd5b612661858286016122ec565b925050602083013567ffffffffffffffff81111561267e57600080fd5b61268a85828601612316565b9150509250929050565b6000602082840312156126a657600080fd5b60006126b484828501612355565b91505092915050565b6000602082840312156126cf57600080fd5b60006126dd8482850161236a565b91505092915050565b6000602082840312156126f857600080fd5b600082013567ffffffffffffffff81111561271257600080fd5b61271e848285016123a9565b91505092915050565b60008060006060848603121561273c57600080fd5b600061274a868287016123d3565b935050602061275b868287016123e8565b925050604061276c868287016123e8565b9150509250925092565b60006020828403121561278857600080fd5b6000612796848285016123e8565b91505092915050565b60006127ab8383612af3565b60208301905092915050565b6127c08161319a565b82525050565b60006127d182613024565b6127db8185613052565b93506127e683613014565b8060005b838110156128175781516127fe888261279f565b975061280983613045565b9250506001810190506127ea565b5085935050505092915050565b61282d816131ac565b82525050565b600061283e8261302f565b6128488185613063565b935061285881856020860161326f565b61286181613465565b840191505092915050565b6128758161322a565b82525050565b60006128868261303a565b6128908185613074565b93506128a081856020860161326f565b6128a981613465565b840191505092915050565b60006128c1603483613074565b91506128cc82613483565b604082019050919050565b60006128e4602883613074565b91506128ef826134d2565b604082019050919050565b6000612907601f83613074565b915061291282613521565b602082019050919050565b600061292a602b83613074565b91506129358261354a565b604082019050919050565b600061294d602683613074565b915061295882613599565b604082019050919050565b6000612970602983613074565b915061297b826135e8565b604082019050919050565b6000612993602583613074565b915061299e82613637565b604082019050919050565b60006129b6603283613074565b91506129c182613686565b604082019050919050565b60006129d9602a83613074565b91506129e4826136d5565b604082019050919050565b60006129fc601383613074565b9150612a0782613724565b602082019050919050565b6000612a1f602083613074565b9150612a2a8261374d565b602082019050919050565b6000612a42601383613074565b9150612a4d82613776565b602082019050919050565b6000612a65602983613074565b9150612a708261379f565b604082019050919050565b6000612a88602983613074565b9150612a93826137ee565b604082019050919050565b6000612aab602883613074565b9150612ab68261383d565b604082019050919050565b6000612ace602183613074565b9150612ad98261388c565b604082019050919050565b612aed8161324e565b82525050565b612afc81613220565b82525050565b612b0b81613220565b82525050565b6000602082019050612b2660008301846127b7565b92915050565b600060a082019050612b4160008301886127b7565b612b4e60208301876127b7565b8181036040830152612b6081866127c6565b90508181036060830152612b7481856127c6565b90508181036080830152612b888184612833565b90509695505050505050565b600060a082019050612ba960008301886127b7565b612bb660208301876127b7565b612bc36040830186612b02565b612bd06060830185612b02565b8181036080830152612be28184612833565b90509695505050505050565b6000604082019050612c0360008301856127b7565b612c106020830184612b02565b9392505050565b60006020820190508181036000830152612c3181846127c6565b905092915050565b60006040820190508181036000830152612c5381856127c6565b90508181036020830152612c6781846127c6565b90509392505050565b6000602082019050612c856000830184612824565b92915050565b6000602082019050612ca0600083018461286c565b92915050565b60006020820190508181036000830152612cc0818461287b565b905092915050565b60006020820190508181036000830152612ce1816128b4565b9050919050565b60006020820190508181036000830152612d01816128d7565b9050919050565b60006020820190508181036000830152612d21816128fa565b9050919050565b60006020820190508181036000830152612d418161291d565b9050919050565b60006020820190508181036000830152612d6181612940565b9050919050565b60006020820190508181036000830152612d8181612963565b9050919050565b60006020820190508181036000830152612da181612986565b9050919050565b60006020820190508181036000830152612dc1816129a9565b9050919050565b60006020820190508181036000830152612de1816129cc565b9050919050565b60006020820190508181036000830152612e01816129ef565b9050919050565b60006020820190508181036000830152612e2181612a12565b9050919050565b60006020820190508181036000830152612e4181612a35565b9050919050565b60006020820190508181036000830152612e6181612a58565b9050919050565b60006020820190508181036000830152612e8181612a7b565b9050919050565b60006020820190508181036000830152612ea181612a9e565b9050919050565b60006020820190508181036000830152612ec181612ac1565b9050919050565b6000602082019050612edd6000830184612b02565b92915050565b6000604082019050612ef86000830185612b02565b612f056020830184612ae4565b9392505050565b6000604082019050612f216000830185612b02565b612f2e6020830184612b02565b9392505050565b6000612f3f612f50565b9050612f4b82826132d4565b919050565b6000604051905090565b600067ffffffffffffffff821115612f7557612f74613414565b5b602082029050602081019050919050565b600067ffffffffffffffff821115612fa157612fa0613414565b5b602082029050602081019050919050565b600067ffffffffffffffff821115612fcd57612fcc613414565b5b612fd682613465565b9050602081019050919050565b600067ffffffffffffffff821115612ffe57612ffd613414565b5b61300782613465565b9050602081019050919050565b6000819050602082019050919050565b600081519050919050565b600081519050919050565b600081519050919050565b6000602082019050919050565b600082825260208201905092915050565b600082825260208201905092915050565b600082825260208201905092915050565b600061309082613220565b915061309b83613220565b9250827fffffffffffffffffffffffffffffffffffffffffffffffffffffffffffffffff038211156130d0576130cf613387565b5b828201905092915050565b60006130e682613220565b91506130f183613220565b925082613101576131006133b6565b5b828204905092915050565b600061311782613220565b915061312283613220565b9250817fffffffffffffffffffffffffffffffffffffffffffffffffffffffffffffffff048311821515161561315b5761315a613387565b5b828202905092915050565b600061317182613220565b915061317c83613220565b92508282101561318f5761318e613387565b5b828203905092915050565b60006131a582613200565b9050919050565b60008115159050919050565b60007fffffffff0000000000000000000000000000000000000000000000000000000082169050919050565b60006fffffffffffffffffffffffffffffffff82169050919050565b600073ffffffffffffffffffffffffffffffffffffffff82169050919050565b6000819050919050565b60006132358261323c565b9050919050565b600061324782613200565b9050919050565b6000613259826131e4565b9050919050565b82818337600083830152505050565b60005b8381101561328d578082015181840152602081019050613272565b8381111561329c576000848401525b50505050565b600060028204905060018216806132ba57607f821691505b602082108114156132ce576132cd6133e5565b5b50919050565b6132dd82613465565b810181811067ffffffffffffffff821117156132fc576132fb613414565b5b80604052505050565b6000613310826131e4565b91506fffffffffffffffffffffffffffffffff82141561333357613332613387565b5b600182019050919050565b600061334982613220565b91507fffffffffffffffffffffffffffffffffffffffffffffffffffffffffffffffff82141561337c5761337b613387565b5b600182019050919050565b7f4e487b7100000000000000000000000000000000000000000000000000000000600052601160045260246000fd5b7f4e487b7100000000000000000000000000000000000000000000000000000000600052601260045260246000fd5b7f4e487b7100000000000000000000000000000000000000000000000000000000600052602260045260246000fd5b7f4e487b7100000000000000000000000000000000000000000000000000000000600052604160045260246000fd5b600060033d11156134625760046000803e61345f600051613476565b90505b90565b6000601f19601f8301169050919050565b60008160e01c9050919050565b7f455243313135353a207472616e7366657220746f206e6f6e204552433131353560008201527f526563656976657220696d706c656d656e746572000000000000000000000000602082015250565b7f455243313135353a204552433131353552656365697665722072656a6563746560008201527f6420746f6b656e73000000000000000000000000000000000000000000000000602082015250565b7f5374617274207072696365206d757374206265203e20656e6420707269636500600082015250565b7f455243313135353a2062616c616e636520717565727920666f7220746865207a60008201527f65726f2061646472657373000000000000000000000000000000000000000000602082015250565b7f4f776e61626c653a206e6577206f776e657220697320746865207a65726f206160008201527f6464726573730000000000000000000000000000000000000000000000000000602082015250565b7f455243313135353a2063616c6c6572206973206e6f74206f776e6572206e6f7260008201527f20617070726f7665640000000000000000000000000000000000000000000000602082015250565b7f455243313135353a207472616e7366657220746f20746865207a65726f20616460008201527f6472657373000000000000000000000000000000000000000000000000000000602082015250565b7f455243313135353a207472616e736665722063616c6c6572206973206e6f742060008201527f6f776e6572206e6f7220617070726f7665640000000000000000000000000000602082015250565b7f455243313135353a20696e73756666696369656e742062616c616e636520666f60008201527f72207472616e7366657200000000000000000000000000000000000000000000602082015250565b7f416d6d6f756e742063616e6e6f74206265203000000000000000000000000000600082015250565b7f4f776e61626c653a2063616c6c6572206973206e6f7420746865206f776e6572600082015250565b7f4e6f20455243313135357320746f2073656c6c00000000000000000000000000600082015250565b7f455243313135353a2073657474696e6720617070726f76616c2073746174757360008201527f20666f722073656c660000000000000000000000000000000000000000000000602082015250565b7f455243313135353a206163636f756e747320616e6420696473206c656e67746860008201527f206d69736d617463680000000000000000000000000000000000000000000000602082015250565b7f455243313135353a2069647320616e6420616d6f756e7473206c656e6774682060008201527f6d69736d61746368000000000000000000000000000000000000000000000000602082015250565b7f455243313135353a206d696e7420746f20746865207a65726f2061646472657360008201527f7300000000000000000000000000000000000000000000000000000000000000602082015250565b600060443d10156138eb5761396e565b6138f3612f50565b60043d036004823e80513d602482011167ffffffffffffffff8211171561391b57505061396e565b808201805167ffffffffffffffff811115613939575050505061396e565b80602083010160043d03850181111561395657505050505061396e565b613965826020018501866132d4565b82955050505050505b90565b61397a8161319a565b811461398557600080fd5b50565b613991816131ac565b811461399c57600080fd5b50565b6139a8816131b8565b81146139b357600080fd5b50565b6139bf816131e4565b81146139ca57600080fd5b50565b6139d681613220565b81146139e157600080fd5b5056fea26469706673582212202d26349711aab0cc0a9088528ece3a847f772fdd44a7dfe7bc75c22e23040a4064736f6c63430008040033",
  "immutableReferences": {},
  "source": "// SPDX-License-Identifier: None\n\npragma solidity ^0.8.0;\n\nimport \"@openzeppelin/contracts/token/ERC1155/ERC1155.sol\";\nimport \"@openzeppelin/contracts/token/ERC20/IERC20.sol\";\nimport \"@openzeppelin/contracts/access/Ownable.sol\";\n\ninterface IRICE is IERC20{\n    function spend(address, uint256) external;\n}\n\ncontract RiceMarket is ERC1155, Ownable{\n    IRICE public RICE;\n    uint public latest;                            //The latest NFT ID\n\n    struct Pricing{\n        uint start;\n        uint end;\n        uint128 supply;\n        uint128 sold;\n    }\n\n    mapping(uint => Pricing) prices;\n\n    constructor(string memory _uri, address _RICE) ERC1155(_uri) Ownable(){\n        RICE = IRICE(_RICE);\n        latest = 0;\n    }\n\n    /// @dev events\n    event Drop(uint ID, uint ammount);\n    event Purchase(uint ID, uint price);\n\n    /// @dev owner sets new URI\n    function updateURI(string memory _new) external onlyOwner{\n        _setURI(_new);\n    }\n\n    /// @dev release new NFTs with drop. Set ammount, start and end price\n    function drop(uint128 _ammount, uint _startPrice, uint _endPrice)external onlyOwner{\n        require(_endPrice > _startPrice, \"Start price must be > end price\");\n        require(_ammount != 0, \"Ammount cannot be 0\");\n        latest++;\n        prices[latest] = Pricing(\n            _startPrice,\n            _endPrice,\n            _ammount,\n            0\n        );\n        _mint(address(this),latest,_ammount,\"\");\n        emit Drop(latest, _ammount);\n    }\n\n    /// @dev buy an NFT at market rate by burning rice. No approval needed, RICE should be able to burn directly\n    function buy(uint ID)external{\n        require(isAvailable(ID), \"No ERC1155s to sell\");\n        uint price = getPrice(ID);\n        RICE.spend(msg.sender, price);\n        prices[ID].sold++;\n        safeTransferFrom(address(this), msg.sender, ID, 1, \"\");\n        emit Purchase(ID, price);\n    }\n\n    /// @dev returns price based on linear price curve\n    function getPrice(uint ID) public view returns(uint){\n        Pricing memory obj = prices[ID];\n        uint e = obj.end - obj.start / obj.supply;\n        return obj.start + (e * obj.sold);\n    }\n\n    /// @dev find if NFT is sold out\n    function isAvailable(uint ID) public view returns(bool){\n        return balanceOf(address(this),ID) > 0 ? true : false;\n    }\n\n}",
  "sourcePath": "/home/carsoncase/Documents/programming/blockchain/DOGEN/RiceFarm/contracts/RiceMarket.sol",
  "compiler": {
    "name": "solc",
    "version": "0.8.4+commit.c7e474f2.Emscripten.clang"
  },
  "schemaVersion": "3.4.1",
  "updatedAt": "2021-06-05T18:53:29.131Z",
  "networkType": "ethereum",
  "devdoc": {
    "events": {
      "Drop(uint256,uint256)": {
        "details": "events"
      }
    },
    "kind": "dev",
    "methods": {
      "balanceOf(address,uint256)": {
        "details": "See {IERC1155-balanceOf}. Requirements: - `account` cannot be the zero address."
      },
      "balanceOfBatch(address[],uint256[])": {
        "details": "See {IERC1155-balanceOfBatch}. Requirements: - `accounts` and `ids` must have the same length."
      },
      "buy(uint256)": {
        "details": "buy an NFT at market rate by burning rice. No approval needed, RICE should be able to burn directly"
      },
      "drop(uint128,uint256,uint256)": {
        "details": "release new NFTs with drop. Set ammount, start and end price"
      },
      "getPrice(uint256)": {
        "details": "returns price based on linear price curve"
      },
      "isApprovedForAll(address,address)": {
        "details": "See {IERC1155-isApprovedForAll}."
      },
      "isAvailable(uint256)": {
        "details": "find if NFT is sold out"
      },
      "owner()": {
        "details": "Returns the address of the current owner."
      },
      "renounceOwnership()": {
        "details": "Leaves the contract without owner. It will not be possible to call `onlyOwner` functions anymore. Can only be called by the current owner. NOTE: Renouncing ownership will leave the contract without an owner, thereby removing any functionality that is only available to the owner."
      },
      "safeBatchTransferFrom(address,address,uint256[],uint256[],bytes)": {
        "details": "See {IERC1155-safeBatchTransferFrom}."
      },
      "safeTransferFrom(address,address,uint256,uint256,bytes)": {
        "details": "See {IERC1155-safeTransferFrom}."
      },
      "setApprovalForAll(address,bool)": {
        "details": "See {IERC1155-setApprovalForAll}."
      },
      "supportsInterface(bytes4)": {
        "details": "See {IERC165-supportsInterface}."
      },
      "transferOwnership(address)": {
        "details": "Transfers ownership of the contract to a new account (`newOwner`). Can only be called by the current owner."
      },
      "updateURI(string)": {
        "details": "owner sets new URI"
      },
      "uri(uint256)": {
        "details": "See {IERC1155MetadataURI-uri}. This implementation returns the same URI for *all* token types. It relies on the token type ID substitution mechanism https://eips.ethereum.org/EIPS/eip-1155#metadata[defined in the EIP]. Clients calling this function must replace the `\\{id\\}` substring with the actual token type ID."
      }
    },
    "version": 1
  },
  "userdoc": {
    "kind": "user",
    "methods": {},
    "version": 1
  }
}