{
  "contractName": "RiceToken",
  "abi": [
    {
      "inputs": [],
      "stateMutability": "nonpayable",
      "type": "constructor"
    },
    {
      "anonymous": false,
      "inputs": [
        {
          "indexed": true,
          "internalType": "address",
          "name": "owner",
          "type": "address"
        },
        {
          "indexed": true,
          "internalType": "address",
          "name": "spender",
          "type": "address"
        },
        {
          "indexed": false,
          "internalType": "uint256",
          "name": "value",
          "type": "uint256"
        }
      ],
      "name": "Approval",
      "type": "event"
    },
    {
      "anonymous": false,
      "inputs": [
        {
          "indexed": true,
          "internalType": "address",
          "name": "previousOwner",
          "type": "address"
        },
        {
          "indexed": true,
          "internalType": "address",
          "name": "newOwner",
          "type": "address"
        }
      ],
      "name": "OwnershipTransferred",
      "type": "event"
    },
    {
      "anonymous": false,
      "inputs": [
        {
          "indexed": true,
          "internalType": "address",
          "name": "from",
          "type": "address"
        },
        {
          "indexed": true,
          "internalType": "address",
          "name": "to",
          "type": "address"
        },
        {
          "indexed": false,
          "internalType": "uint256",
          "name": "value",
          "type": "uint256"
        }
      ],
      "name": "Transfer",
      "type": "event"
    },
    {
      "inputs": [],
      "name": "RiceFeild",
      "outputs": [
        {
          "internalType": "address",
          "name": "",
          "type": "address"
        }
      ],
      "stateMutability": "view",
      "type": "function"
    },
    {
      "inputs": [],
      "name": "RiceMarket",
      "outputs": [
        {
          "internalType": "address",
          "name": "",
          "type": "address"
        }
      ],
      "stateMutability": "view",
      "type": "function"
    },
    {
      "inputs": [
        {
          "internalType": "address",
          "name": "owner",
          "type": "address"
        },
        {
          "internalType": "address",
          "name": "spender",
          "type": "address"
        }
      ],
      "name": "allowance",
      "outputs": [
        {
          "internalType": "uint256",
          "name": "",
          "type": "uint256"
        }
      ],
      "stateMutability": "view",
      "type": "function"
    },
    {
      "inputs": [
        {
          "internalType": "address",
          "name": "spender",
          "type": "address"
        },
        {
          "internalType": "uint256",
          "name": "amount",
          "type": "uint256"
        }
      ],
      "name": "approve",
      "outputs": [
        {
          "internalType": "bool",
          "name": "",
          "type": "bool"
        }
      ],
      "stateMutability": "nonpayable",
      "type": "function"
    },
    {
      "inputs": [
        {
          "internalType": "address",
          "name": "account",
          "type": "address"
        }
      ],
      "name": "balanceOf",
      "outputs": [
        {
          "internalType": "uint256",
          "name": "",
          "type": "uint256"
        }
      ],
      "stateMutability": "view",
      "type": "function"
    },
    {
      "inputs": [],
      "name": "decimals",
      "outputs": [
        {
          "internalType": "uint8",
          "name": "",
          "type": "uint8"
        }
      ],
      "stateMutability": "view",
      "type": "function"
    },
    {
      "inputs": [
        {
          "internalType": "address",
          "name": "spender",
          "type": "address"
        },
        {
          "internalType": "uint256",
          "name": "subtractedValue",
          "type": "uint256"
        }
      ],
      "name": "decreaseAllowance",
      "outputs": [
        {
          "internalType": "bool",
          "name": "",
          "type": "bool"
        }
      ],
      "stateMutability": "nonpayable",
      "type": "function"
    },
    {
      "inputs": [
        {
          "internalType": "address",
          "name": "spender",
          "type": "address"
        },
        {
          "internalType": "uint256",
          "name": "addedValue",
          "type": "uint256"
        }
      ],
      "name": "increaseAllowance",
      "outputs": [
        {
          "internalType": "bool",
          "name": "",
          "type": "bool"
        }
      ],
      "stateMutability": "nonpayable",
      "type": "function"
    },
    {
      "inputs": [],
      "name": "name",
      "outputs": [
        {
          "internalType": "string",
          "name": "",
          "type": "string"
        }
      ],
      "stateMutability": "view",
      "type": "function"
    },
    {
      "inputs": [],
      "name": "owner",
      "outputs": [
        {
          "internalType": "address",
          "name": "",
          "type": "address"
        }
      ],
      "stateMutability": "view",
      "type": "function"
    },
    {
      "inputs": [],
      "name": "renounceOwnership",
      "outputs": [],
      "stateMutability": "nonpayable",
      "type": "function"
    },
    {
      "inputs": [],
      "name": "symbol",
      "outputs": [
        {
          "internalType": "string",
          "name": "",
          "type": "string"
        }
      ],
      "stateMutability": "view",
      "type": "function"
    },
    {
      "inputs": [],
      "name": "totalSupply",
      "outputs": [
        {
          "internalType": "uint256",
          "name": "",
          "type": "uint256"
        }
      ],
      "stateMutability": "view",
      "type": "function"
    },
    {
      "inputs": [
        {
          "internalType": "address",
          "name": "recipient",
          "type": "address"
        },
        {
          "internalType": "uint256",
          "name": "amount",
          "type": "uint256"
        }
      ],
      "name": "transfer",
      "outputs": [
        {
          "internalType": "bool",
          "name": "",
          "type": "bool"
        }
      ],
      "stateMutability": "nonpayable",
      "type": "function"
    },
    {
      "inputs": [
        {
          "internalType": "address",
          "name": "sender",
          "type": "address"
        },
        {
          "internalType": "address",
          "name": "recipient",
          "type": "address"
        },
        {
          "internalType": "uint256",
          "name": "amount",
          "type": "uint256"
        }
      ],
      "name": "transferFrom",
      "outputs": [
        {
          "internalType": "bool",
          "name": "",
          "type": "bool"
        }
      ],
      "stateMutability": "nonpayable",
      "type": "function"
    },
    {
      "inputs": [
        {
          "internalType": "address",
          "name": "newOwner",
          "type": "address"
        }
      ],
      "name": "transferOwnership",
      "outputs": [],
      "stateMutability": "nonpayable",
      "type": "function"
    },
    {
      "inputs": [
        {
          "internalType": "address",
          "name": "_receiver",
          "type": "address"
        },
        {
          "internalType": "uint256",
          "name": "_amm",
          "type": "uint256"
        }
      ],
      "name": "mint",
      "outputs": [],
      "stateMutability": "nonpayable",
      "type": "function"
    },
    {
      "inputs": [
        {
          "internalType": "address",
          "name": "_who",
          "type": "address"
        },
        {
          "internalType": "uint256",
          "name": "_amm",
          "type": "uint256"
        }
      ],
      "name": "spend",
      "outputs": [],
      "stateMutability": "nonpayable",
      "type": "function"
    },
    {
      "inputs": [
        {
          "internalType": "address",
          "name": "_riceFeild",
          "type": "address"
        }
      ],
      "name": "setRiceFeild",
      "outputs": [],
      "stateMutability": "nonpayable",
      "type": "function"
    },
    {
      "inputs": [
        {
          "internalType": "address",
          "name": "_riceMarket",
          "type": "address"
        }
      ],
      "name": "setRiceMarket",
      "outputs": [],
      "stateMutability": "nonpayable",
      "type": "function"
    }
  ],
  "bytecode": "0x60806040526000600660006101000a81548173ffffffffffffffffffffffffffffffffffffffff021916908373ffffffffffffffffffffffffffffffffffffffff1602179055506000600760006101000a81548173ffffffffffffffffffffffffffffffffffffffff021916908373ffffffffffffffffffffffffffffffffffffffff1602179055503480156200009557600080fd5b506040518060400160405280600a81526020017f5269636520546f6b656e000000000000000000000000000000000000000000008152506040518060400160405280600481526020017f524943450000000000000000000000000000000000000000000000000000000081525081600390805190602001906200011a929190620001f5565b50806004908051906020019062000133929190620001f5565b505050600062000148620001ed60201b60201c565b905080600560006101000a81548173ffffffffffffffffffffffffffffffffffffffff021916908373ffffffffffffffffffffffffffffffffffffffff1602179055508073ffffffffffffffffffffffffffffffffffffffff16600073ffffffffffffffffffffffffffffffffffffffff167f8be0079c531659141344cd1fd0a4f28419497f9722a3daafe3b4186f6b6457e060405160405180910390a3506200030a565b600033905090565b8280546200020390620002a5565b90600052602060002090601f01602090048101928262000227576000855562000273565b82601f106200024257805160ff191683800117855562000273565b8280016001018555821562000273579182015b828111156200027257825182559160200191906001019062000255565b5b50905062000282919062000286565b5090565b5b80821115620002a157600081600090555060010162000287565b5090565b60006002820490506001821680620002be57607f821691505b60208210811415620002d557620002d4620002db565b5b50919050565b7f4e487b7100000000000000000000000000000000000000000000000000000000600052602260045260246000fd5b61232c806200031a6000396000f3fe608060405234801561001057600080fd5b506004361061012c5760003560e01c80638da5cb5b116100ad578063af7d6ca311610071578063af7d6ca314610347578063b22a88f514610363578063dd62ed3e1461037f578063e85ea417146103af578063f2fde38b146103cd5761012c565b80638da5cb5b1461028d57806395d89b41146102ab578063a457c2d7146102c9578063a9059cbb146102f9578063aefb0ebc146103295761012c565b8063313ce567116100f4578063313ce567146101e9578063395093511461020757806340c10f191461023757806370a0823114610253578063715018a6146102835761012c565b806306fdde0314610131578063095ea7b31461014f5780630f4d4a061461017f57806318160ddd1461019b57806323b872dd146101b9575b600080fd5b6101396103e9565b6040516101469190611ade565b60405180910390f35b610169600480360381019061016491906117ea565b61047b565b6040516101769190611ac3565b60405180910390f35b61019960048036038101906101949190611736565b610499565b005b6101a3610559565b6040516101b09190611ce0565b60405180910390f35b6101d360048036038101906101ce919061179b565b610563565b6040516101e09190611ac3565b60405180910390f35b6101f1610664565b6040516101fe9190611cfb565b60405180910390f35b610221600480360381019061021c91906117ea565b61066d565b60405161022e9190611ac3565b60405180910390f35b610251600480360381019061024c91906117ea565b610719565b005b61026d60048036038101906102689190611736565b6107b7565b60405161027a9190611ce0565b60405180910390f35b61028b6107ff565b005b61029561093c565b6040516102a29190611aa8565b60405180910390f35b6102b3610966565b6040516102c09190611ade565b60405180910390f35b6102e360048036038101906102de91906117ea565b6109f8565b6040516102f09190611ac3565b60405180910390f35b610313600480360381019061030e91906117ea565b610aec565b6040516103209190611ac3565b60405180910390f35b610331610b0a565b60405161033e9190611aa8565b60405180910390f35b610361600480360381019061035c91906117ea565b610b30565b005b61037d60048036038101906103789190611736565b610bce565b005b6103996004803603810190610394919061175f565b610c8e565b6040516103a69190611ce0565b60405180910390f35b6103b7610d15565b6040516103c49190611aa8565b60405180910390f35b6103e760048036038101906103e29190611736565b610d3b565b005b6060600380546103f890611e44565b80601f016020809104026020016040519081016040528092919081815260200182805461042490611e44565b80156104715780601f1061044657610100808354040283529160200191610471565b820191906000526020600020905b81548152906001019060200180831161045457829003601f168201915b5050505050905090565b600061048f610488610ee7565b8484610eef565b6001905092915050565b6104a1610ee7565b73ffffffffffffffffffffffffffffffffffffffff166104bf61093c565b73ffffffffffffffffffffffffffffffffffffffff1614610515576040517f08c379a000000000000000000000000000000000000000000000000000000000815260040161050c90611c00565b60405180910390fd5b80600660006101000a81548173ffffffffffffffffffffffffffffffffffffffff021916908373ffffffffffffffffffffffffffffffffffffffff16021790555050565b6000600254905090565b60006105708484846110ba565b6000600160008673ffffffffffffffffffffffffffffffffffffffff1673ffffffffffffffffffffffffffffffffffffffff16815260200190815260200160002060006105bb610ee7565b73ffffffffffffffffffffffffffffffffffffffff1673ffffffffffffffffffffffffffffffffffffffff1681526020019081526020016000205490508281101561063b576040517f08c379a000000000000000000000000000000000000000000000000000000000815260040161063290611be0565b60405180910390fd5b61065885610647610ee7565b85846106539190611d88565b610eef565b60019150509392505050565b60006012905090565b600061070f61067a610ee7565b848460016000610688610ee7565b73ffffffffffffffffffffffffffffffffffffffff1673ffffffffffffffffffffffffffffffffffffffff16815260200190815260200160002060008873ffffffffffffffffffffffffffffffffffffffff1673ffffffffffffffffffffffffffffffffffffffff1681526020019081526020016000205461070a9190611d32565b610eef565b6001905092915050565b600660009054906101000a900473ffffffffffffffffffffffffffffffffffffffff1673ffffffffffffffffffffffffffffffffffffffff163373ffffffffffffffffffffffffffffffffffffffff16146107a9576040517f08c379a00000000000000000000000000000000000000000000000000000000081526004016107a090611b80565b60405180910390fd5b6107b38282611339565b5050565b60008060008373ffffffffffffffffffffffffffffffffffffffff1673ffffffffffffffffffffffffffffffffffffffff168152602001908152602001600020549050919050565b610807610ee7565b73ffffffffffffffffffffffffffffffffffffffff1661082561093c565b73ffffffffffffffffffffffffffffffffffffffff161461087b576040517f08c379a000000000000000000000000000000000000000000000000000000000815260040161087290611c00565b60405180910390fd5b600073ffffffffffffffffffffffffffffffffffffffff16600560009054906101000a900473ffffffffffffffffffffffffffffffffffffffff1673ffffffffffffffffffffffffffffffffffffffff167f8be0079c531659141344cd1fd0a4f28419497f9722a3daafe3b4186f6b6457e060405160405180910390a36000600560006101000a81548173ffffffffffffffffffffffffffffffffffffffff021916908373ffffffffffffffffffffffffffffffffffffffff160217905550565b6000600560009054906101000a900473ffffffffffffffffffffffffffffffffffffffff16905090565b60606004805461097590611e44565b80601f01602080910402602001604051908101604052809291908181526020018280546109a190611e44565b80156109ee5780601f106109c3576101008083540402835291602001916109ee565b820191906000526020600020905b8154815290600101906020018083116109d157829003601f168201915b5050505050905090565b60008060016000610a07610ee7565b73ffffffffffffffffffffffffffffffffffffffff1673ffffffffffffffffffffffffffffffffffffffff16815260200190815260200160002060008573ffffffffffffffffffffffffffffffffffffffff1673ffffffffffffffffffffffffffffffffffffffff16815260200190815260200160002054905082811015610ac4576040517f08c379a0000000000000000000000000000000000000000000000000000000008152600401610abb90611c80565b60405180910390fd5b610ae1610acf610ee7565b858584610adc9190611d88565b610eef565b600191505092915050565b6000610b00610af9610ee7565b84846110ba565b6001905092915050565b600760009054906101000a900473ffffffffffffffffffffffffffffffffffffffff1681565b600760009054906101000a900473ffffffffffffffffffffffffffffffffffffffff1673ffffffffffffffffffffffffffffffffffffffff163373ffffffffffffffffffffffffffffffffffffffff1614610bc0576040517f08c379a0000000000000000000000000000000000000000000000000000000008152600401610bb790611bc0565b60405180910390fd5b610bca828261148d565b5050565b610bd6610ee7565b73ffffffffffffffffffffffffffffffffffffffff16610bf461093c565b73ffffffffffffffffffffffffffffffffffffffff1614610c4a576040517f08c379a0000000000000000000000000000000000000000000000000000000008152600401610c4190611c00565b60405180910390fd5b80600760006101000a81548173ffffffffffffffffffffffffffffffffffffffff021916908373ffffffffffffffffffffffffffffffffffffffff16021790555050565b6000600160008473ffffffffffffffffffffffffffffffffffffffff1673ffffffffffffffffffffffffffffffffffffffff16815260200190815260200160002060008373ffffffffffffffffffffffffffffffffffffffff1673ffffffffffffffffffffffffffffffffffffffff16815260200190815260200160002054905092915050565b600660009054906101000a900473ffffffffffffffffffffffffffffffffffffffff1681565b610d43610ee7565b73ffffffffffffffffffffffffffffffffffffffff16610d6161093c565b73ffffffffffffffffffffffffffffffffffffffff1614610db7576040517f08c379a0000000000000000000000000000000000000000000000000000000008152600401610dae90611c00565b60405180910390fd5b600073ffffffffffffffffffffffffffffffffffffffff168173ffffffffffffffffffffffffffffffffffffffff161415610e27576040517f08c379a0000000000000000000000000000000000000000000000000000000008152600401610e1e90611b40565b60405180910390fd5b8073ffffffffffffffffffffffffffffffffffffffff16600560009054906101000a900473ffffffffffffffffffffffffffffffffffffffff1673ffffffffffffffffffffffffffffffffffffffff167f8be0079c531659141344cd1fd0a4f28419497f9722a3daafe3b4186f6b6457e060405160405180910390a380600560006101000a81548173ffffffffffffffffffffffffffffffffffffffff021916908373ffffffffffffffffffffffffffffffffffffffff16021790555050565b600033905090565b600073ffffffffffffffffffffffffffffffffffffffff168373ffffffffffffffffffffffffffffffffffffffff161415610f5f576040517f08c379a0000000000000000000000000000000000000000000000000000000008152600401610f5690611c60565b60405180910390fd5b600073ffffffffffffffffffffffffffffffffffffffff168273ffffffffffffffffffffffffffffffffffffffff161415610fcf576040517f08c379a0000000000000000000000000000000000000000000000000000000008152600401610fc690611b60565b60405180910390fd5b80600160008573ffffffffffffffffffffffffffffffffffffffff1673ffffffffffffffffffffffffffffffffffffffff16815260200190815260200160002060008473ffffffffffffffffffffffffffffffffffffffff1673ffffffffffffffffffffffffffffffffffffffff168152602001908152602001600020819055508173ffffffffffffffffffffffffffffffffffffffff168373ffffffffffffffffffffffffffffffffffffffff167f8c5be1e5ebec7d5bd14f71427d1e84f3dd0314c0f7b2291e5b200ac8c7c3b925836040516110ad9190611ce0565b60405180910390a3505050565b600073ffffffffffffffffffffffffffffffffffffffff168373ffffffffffffffffffffffffffffffffffffffff16141561112a576040517f08c379a000000000000000000000000000000000000000000000000000000000815260040161112190611c40565b60405180910390fd5b600073ffffffffffffffffffffffffffffffffffffffff168273ffffffffffffffffffffffffffffffffffffffff16141561119a576040517f08c379a000000000000000000000000000000000000000000000000000000000815260040161119190611b00565b60405180910390fd5b6111a5838383611661565b60008060008573ffffffffffffffffffffffffffffffffffffffff1673ffffffffffffffffffffffffffffffffffffffff1681526020019081526020016000205490508181101561122b576040517f08c379a000000000000000000000000000000000000000000000000000000000815260040161122290611ba0565b60405180910390fd5b81816112379190611d88565b6000808673ffffffffffffffffffffffffffffffffffffffff1673ffffffffffffffffffffffffffffffffffffffff16815260200190815260200160002081905550816000808573ffffffffffffffffffffffffffffffffffffffff1673ffffffffffffffffffffffffffffffffffffffff16815260200190815260200160002060008282546112c79190611d32565b925050819055508273ffffffffffffffffffffffffffffffffffffffff168473ffffffffffffffffffffffffffffffffffffffff167fddf252ad1be2c89b69c2b068fc378daa952ba7f163c4a11628f55a4df523b3ef8460405161132b9190611ce0565b60405180910390a350505050565b600073ffffffffffffffffffffffffffffffffffffffff168273ffffffffffffffffffffffffffffffffffffffff1614156113a9576040517f08c379a00000000000000000000000000000000000000000000000000000000081526004016113a090611cc0565b60405180910390fd5b6113b560008383611661565b80600260008282546113c79190611d32565b92505081905550806000808473ffffffffffffffffffffffffffffffffffffffff1673ffffffffffffffffffffffffffffffffffffffff168152602001908152602001600020600082825461141c9190611d32565b925050819055508173ffffffffffffffffffffffffffffffffffffffff16600073ffffffffffffffffffffffffffffffffffffffff167fddf252ad1be2c89b69c2b068fc378daa952ba7f163c4a11628f55a4df523b3ef836040516114819190611ce0565b60405180910390a35050565b600073ffffffffffffffffffffffffffffffffffffffff168273ffffffffffffffffffffffffffffffffffffffff1614156114fd576040517f08c379a00000000000000000000000000000000000000000000000000000000081526004016114f490611c20565b60405180910390fd5b61150982600083611661565b60008060008473ffffffffffffffffffffffffffffffffffffffff1673ffffffffffffffffffffffffffffffffffffffff1681526020019081526020016000205490508181101561158f576040517f08c379a000000000000000000000000000000000000000000000000000000000815260040161158690611b20565b60405180910390fd5b818161159b9190611d88565b6000808573ffffffffffffffffffffffffffffffffffffffff1673ffffffffffffffffffffffffffffffffffffffff1681526020019081526020016000208190555081600260008282546115ef9190611d88565b92505081905550600073ffffffffffffffffffffffffffffffffffffffff168373ffffffffffffffffffffffffffffffffffffffff167fddf252ad1be2c89b69c2b068fc378daa952ba7f163c4a11628f55a4df523b3ef846040516116549190611ce0565b60405180910390a3505050565b600073ffffffffffffffffffffffffffffffffffffffff168373ffffffffffffffffffffffffffffffffffffffff1614806116c85750600073ffffffffffffffffffffffffffffffffffffffff168273ffffffffffffffffffffffffffffffffffffffff16145b611707576040517f08c379a00000000000000000000000000000000000000000000000000000000081526004016116fe90611ca0565b60405180910390fd5b505050565b60008135905061171b816122c8565b92915050565b600081359050611730816122df565b92915050565b60006020828403121561174857600080fd5b60006117568482850161170c565b91505092915050565b6000806040838503121561177257600080fd5b60006117808582860161170c565b92505060206117918582860161170c565b9150509250929050565b6000806000606084860312156117b057600080fd5b60006117be8682870161170c565b93505060206117cf8682870161170c565b92505060406117e086828701611721565b9150509250925092565b600080604083850312156117fd57600080fd5b600061180b8582860161170c565b925050602061181c85828601611721565b9150509250929050565b61182f81611dbc565b82525050565b61183e81611dce565b82525050565b600061184f82611d16565b6118598185611d21565b9350611869818560208601611e11565b61187281611ed4565b840191505092915050565b600061188a602383611d21565b915061189582611ee5565b604082019050919050565b60006118ad602283611d21565b91506118b882611f34565b604082019050919050565b60006118d0602683611d21565b91506118db82611f83565b604082019050919050565b60006118f3602283611d21565b91506118fe82611fd2565b604082019050919050565b6000611916601c83611d21565b915061192182612021565b602082019050919050565b6000611939602683611d21565b91506119448261204a565b604082019050919050565b600061195c601983611d21565b915061196782612099565b602082019050919050565b600061197f602883611d21565b915061198a826120c2565b604082019050919050565b60006119a2602083611d21565b91506119ad82612111565b602082019050919050565b60006119c5602183611d21565b91506119d08261213a565b604082019050919050565b60006119e8602583611d21565b91506119f382612189565b604082019050919050565b6000611a0b602483611d21565b9150611a16826121d8565b604082019050919050565b6000611a2e602583611d21565b9150611a3982612227565b604082019050919050565b6000611a51601e83611d21565b9150611a5c82612276565b602082019050919050565b6000611a74601f83611d21565b9150611a7f8261229f565b602082019050919050565b611a9381611dfa565b82525050565b611aa281611e04565b82525050565b6000602082019050611abd6000830184611826565b92915050565b6000602082019050611ad86000830184611835565b92915050565b60006020820190508181036000830152611af88184611844565b905092915050565b60006020820190508181036000830152611b198161187d565b9050919050565b60006020820190508181036000830152611b39816118a0565b9050919050565b60006020820190508181036000830152611b59816118c3565b9050919050565b60006020820190508181036000830152611b79816118e6565b9050919050565b60006020820190508181036000830152611b9981611909565b9050919050565b60006020820190508181036000830152611bb98161192c565b9050919050565b60006020820190508181036000830152611bd98161194f565b9050919050565b60006020820190508181036000830152611bf981611972565b9050919050565b60006020820190508181036000830152611c1981611995565b9050919050565b60006020820190508181036000830152611c39816119b8565b9050919050565b60006020820190508181036000830152611c59816119db565b9050919050565b60006020820190508181036000830152611c79816119fe565b9050919050565b60006020820190508181036000830152611c9981611a21565b9050919050565b60006020820190508181036000830152611cb981611a44565b9050919050565b60006020820190508181036000830152611cd981611a67565b9050919050565b6000602082019050611cf56000830184611a8a565b92915050565b6000602082019050611d106000830184611a99565b92915050565b600081519050919050565b600082825260208201905092915050565b6000611d3d82611dfa565b9150611d4883611dfa565b9250827fffffffffffffffffffffffffffffffffffffffffffffffffffffffffffffffff03821115611d7d57611d7c611e76565b5b828201905092915050565b6000611d9382611dfa565b9150611d9e83611dfa565b925082821015611db157611db0611e76565b5b828203905092915050565b6000611dc782611dda565b9050919050565b60008115159050919050565b600073ffffffffffffffffffffffffffffffffffffffff82169050919050565b6000819050919050565b600060ff82169050919050565b60005b83811015611e2f578082015181840152602081019050611e14565b83811115611e3e576000848401525b50505050565b60006002820490506001821680611e5c57607f821691505b60208210811415611e7057611e6f611ea5565b5b50919050565b7f4e487b7100000000000000000000000000000000000000000000000000000000600052601160045260246000fd5b7f4e487b7100000000000000000000000000000000000000000000000000000000600052602260045260246000fd5b6000601f19601f8301169050919050565b7f45524332303a207472616e7366657220746f20746865207a65726f206164647260008201527f6573730000000000000000000000000000000000000000000000000000000000602082015250565b7f45524332303a206275726e20616d6f756e7420657863656564732062616c616e60008201527f6365000000000000000000000000000000000000000000000000000000000000602082015250565b7f4f776e61626c653a206e6577206f776e657220697320746865207a65726f206160008201527f6464726573730000000000000000000000000000000000000000000000000000602082015250565b7f45524332303a20617070726f766520746f20746865207a65726f20616464726560008201527f7373000000000000000000000000000000000000000000000000000000000000602082015250565b7f43616c6c6572206d7573742062652074686520526963654665696c6400000000600082015250565b7f45524332303a207472616e7366657220616d6f756e742065786365656473206260008201527f616c616e63650000000000000000000000000000000000000000000000000000602082015250565b7f43616c6c6572206d75737420626520526963654d61726b657400000000000000600082015250565b7f45524332303a207472616e7366657220616d6f756e742065786365656473206160008201527f6c6c6f77616e6365000000000000000000000000000000000000000000000000602082015250565b7f4f776e61626c653a2063616c6c6572206973206e6f7420746865206f776e6572600082015250565b7f45524332303a206275726e2066726f6d20746865207a65726f2061646472657360008201527f7300000000000000000000000000000000000000000000000000000000000000602082015250565b7f45524332303a207472616e736665722066726f6d20746865207a65726f20616460008201527f6472657373000000000000000000000000000000000000000000000000000000602082015250565b7f45524332303a20617070726f76652066726f6d20746865207a65726f2061646460008201527f7265737300000000000000000000000000000000000000000000000000000000602082015250565b7f45524332303a2064656372656173656420616c6c6f77616e63652062656c6f7760008201527f207a65726f000000000000000000000000000000000000000000000000000000602082015250565b7f5468697320746f6b656e206973206e6f6e2d7472616e7366657261626c650000600082015250565b7f45524332303a206d696e7420746f20746865207a65726f206164647265737300600082015250565b6122d181611dbc565b81146122dc57600080fd5b50565b6122e881611dfa565b81146122f357600080fd5b5056fea26469706673582212205a5991efc1cb86904b9bf1badf4ab225939c7054fdb31247c2e097474900c7e664736f6c63430008040033",
  "immutableReferences": {},
  "source": "// SPDX-License-Identifier: MIT\n\npragma solidity ^0.8.0;\n\nimport \"@openzeppelin/contracts/token/ERC20/ERC20.sol\";\nimport \"@openzeppelin/contracts/access/Ownable.sol\";\n\n/// @dev owner should be an admin. Owner can set the RiceField and RiceMarket contract\ncontract RiceToken is ERC20, Ownable{\n    address public RiceFeild = address(0);\n    address public RiceMarket = address(0);\n    constructor() ERC20(\"Rice Token\", \"RICE\") Ownable(){}\n\n    /// @dev for RiceField to mint tokens\n    function mint(address _receiver, uint256 _amm) external{\n        require(msg.sender == RiceFeild, \"Caller must be the RiceFeild\");\n        _mint(_receiver, _amm);\n    }\n\n    /// @dev allows the market to spend a person's token without transfering\n    function spend(address _who, uint256 _amm) external{\n        require(msg.sender == RiceMarket, \"Caller must be RiceMarket\");\n        _burn(_who, _amm);\n    }\n\n    /// @dev function allows owner to set the RiceFeild address\n    function setRiceFeild(address _riceFeild) external onlyOwner{\n        RiceFeild = _riceFeild;\n    }\n\n    /// @dev function allows owner to set RiceMarket\n    function setRiceMarket(address _riceMarket) external onlyOwner {\n        RiceMarket = _riceMarket;\n    }\n\n    /// @dev hook makes token non-transferable\n    function _beforeTokenTransfer(address _from, address _to, uint256 _amm) internal override{\n        require(_from == address(0) || _to == address(0), \"This token is non-transferable\");    //Excluding burn/mint\n    }\n}\n",
  "sourcePath": "/home/carsoncase/Documents/programming/blockchain/DOGEN/RiceFarm/contracts/RiceToken.sol",
  "compiler": {
    "name": "solc",
    "version": "0.8.4+commit.c7e474f2.Emscripten.clang"
  },
  "schemaVersion": "3.4.1",
  "updatedAt": "2021-05-23T04:22:07.797Z",
  "devdoc": {
    "details": "owner should be an admin. Owner can set the RiceField and RiceMarket contract",
    "kind": "dev",
    "methods": {
      "allowance(address,address)": {
        "details": "See {IERC20-allowance}."
      },
      "approve(address,uint256)": {
        "details": "See {IERC20-approve}. Requirements: - `spender` cannot be the zero address."
      },
      "balanceOf(address)": {
        "details": "See {IERC20-balanceOf}."
      },
      "decimals()": {
        "details": "Returns the number of decimals used to get its user representation. For example, if `decimals` equals `2`, a balance of `505` tokens should be displayed to a user as `5,05` (`505 / 10 ** 2`). Tokens usually opt for a value of 18, imitating the relationship between Ether and Wei. This is the value {ERC20} uses, unless this function is overridden; NOTE: This information is only used for _display_ purposes: it in no way affects any of the arithmetic of the contract, including {IERC20-balanceOf} and {IERC20-transfer}."
      },
      "decreaseAllowance(address,uint256)": {
        "details": "Atomically decreases the allowance granted to `spender` by the caller. This is an alternative to {approve} that can be used as a mitigation for problems described in {IERC20-approve}. Emits an {Approval} event indicating the updated allowance. Requirements: - `spender` cannot be the zero address. - `spender` must have allowance for the caller of at least `subtractedValue`."
      },
      "increaseAllowance(address,uint256)": {
        "details": "Atomically increases the allowance granted to `spender` by the caller. This is an alternative to {approve} that can be used as a mitigation for problems described in {IERC20-approve}. Emits an {Approval} event indicating the updated allowance. Requirements: - `spender` cannot be the zero address."
      },
      "mint(address,uint256)": {
        "details": "for RiceField to mint tokens"
      },
      "name()": {
        "details": "Returns the name of the token."
      },
      "owner()": {
        "details": "Returns the address of the current owner."
      },
      "renounceOwnership()": {
        "details": "Leaves the contract without owner. It will not be possible to call `onlyOwner` functions anymore. Can only be called by the current owner. NOTE: Renouncing ownership will leave the contract without an owner, thereby removing any functionality that is only available to the owner."
      },
      "setRiceFeild(address)": {
        "details": "function allows owner to set the RiceFeild address"
      },
      "setRiceMarket(address)": {
        "details": "function allows owner to set RiceMarket"
      },
      "spend(address,uint256)": {
        "details": "allows the market to spend a person's token without transfering"
      },
      "symbol()": {
        "details": "Returns the symbol of the token, usually a shorter version of the name."
      },
      "totalSupply()": {
        "details": "See {IERC20-totalSupply}."
      },
      "transfer(address,uint256)": {
        "details": "See {IERC20-transfer}. Requirements: - `recipient` cannot be the zero address. - the caller must have a balance of at least `amount`."
      },
      "transferFrom(address,address,uint256)": {
        "details": "See {IERC20-transferFrom}. Emits an {Approval} event indicating the updated allowance. This is not required by the EIP. See the note at the beginning of {ERC20}. Requirements: - `sender` and `recipient` cannot be the zero address. - `sender` must have a balance of at least `amount`. - the caller must have allowance for ``sender``'s tokens of at least `amount`."
      },
      "transferOwnership(address)": {
        "details": "Transfers ownership of the contract to a new account (`newOwner`). Can only be called by the current owner."
      }
    },
    "version": 1
  },
  "userdoc": {
    "kind": "user",
    "methods": {},
    "version": 1
  }
}