{
  "contractName": "RiceField",
  "abi": [
    {
      "inputs": [
        {
          "internalType": "contract RiceToken",
          "name": "_rice",
          "type": "address"
        },
        {
          "internalType": "address",
          "name": "_devaddr",
          "type": "address"
        },
        {
          "internalType": "uint256",
          "name": "_ricePerBlock",
          "type": "uint256"
        },
        {
          "internalType": "uint256",
          "name": "_startBlock",
          "type": "uint256"
        },
        {
          "internalType": "uint256",
          "name": "_bonusEndBlock",
          "type": "uint256"
        }
      ],
      "stateMutability": "nonpayable",
      "type": "constructor"
    },
    {
      "anonymous": false,
      "inputs": [
        {
          "indexed": true,
          "internalType": "address",
          "name": "user",
          "type": "address"
        },
        {
          "indexed": true,
          "internalType": "uint256",
          "name": "pid",
          "type": "uint256"
        },
        {
          "indexed": false,
          "internalType": "uint256",
          "name": "amount",
          "type": "uint256"
        }
      ],
      "name": "Deposit",
      "type": "event"
    },
    {
      "anonymous": false,
      "inputs": [
        {
          "indexed": true,
          "internalType": "address",
          "name": "user",
          "type": "address"
        },
        {
          "indexed": true,
          "internalType": "uint256",
          "name": "pid",
          "type": "uint256"
        },
        {
          "indexed": false,
          "internalType": "uint256",
          "name": "amount",
          "type": "uint256"
        }
      ],
      "name": "EmergencyWithdraw",
      "type": "event"
    },
    {
      "anonymous": false,
      "inputs": [
        {
          "indexed": true,
          "internalType": "address",
          "name": "previousOwner",
          "type": "address"
        },
        {
          "indexed": true,
          "internalType": "address",
          "name": "newOwner",
          "type": "address"
        }
      ],
      "name": "OwnershipTransferred",
      "type": "event"
    },
    {
      "anonymous": false,
      "inputs": [
        {
          "indexed": true,
          "internalType": "address",
          "name": "user",
          "type": "address"
        },
        {
          "indexed": true,
          "internalType": "uint256",
          "name": "pid",
          "type": "uint256"
        },
        {
          "indexed": false,
          "internalType": "uint256",
          "name": "amount",
          "type": "uint256"
        }
      ],
      "name": "Withdraw",
      "type": "event"
    },
    {
      "inputs": [],
      "name": "BONUS_MULTIPLIER",
      "outputs": [
        {
          "internalType": "uint256",
          "name": "",
          "type": "uint256"
        }
      ],
      "stateMutability": "view",
      "type": "function"
    },
    {
      "inputs": [],
      "name": "bonusEndBlock",
      "outputs": [
        {
          "internalType": "uint256",
          "name": "",
          "type": "uint256"
        }
      ],
      "stateMutability": "view",
      "type": "function"
    },
    {
      "inputs": [],
      "name": "devaddr",
      "outputs": [
        {
          "internalType": "address",
          "name": "",
          "type": "address"
        }
      ],
      "stateMutability": "view",
      "type": "function"
    },
    {
      "inputs": [],
      "name": "migrator",
      "outputs": [
        {
          "internalType": "contract IMigratorChef",
          "name": "",
          "type": "address"
        }
      ],
      "stateMutability": "view",
      "type": "function"
    },
    {
      "inputs": [],
      "name": "owner",
      "outputs": [
        {
          "internalType": "address",
          "name": "",
          "type": "address"
        }
      ],
      "stateMutability": "view",
      "type": "function"
    },
    {
      "inputs": [
        {
          "internalType": "uint256",
          "name": "",
          "type": "uint256"
        }
      ],
      "name": "poolInfo",
      "outputs": [
        {
          "internalType": "contract IERC20",
          "name": "lpToken",
          "type": "address"
        },
        {
          "internalType": "uint256",
          "name": "allocPoint",
          "type": "uint256"
        },
        {
          "internalType": "uint256",
          "name": "lastRewardBlock",
          "type": "uint256"
        },
        {
          "internalType": "uint256",
          "name": "accRicePerShare",
          "type": "uint256"
        }
      ],
      "stateMutability": "view",
      "type": "function"
    },
    {
      "inputs": [],
      "name": "renounceOwnership",
      "outputs": [],
      "stateMutability": "nonpayable",
      "type": "function"
    },
    {
      "inputs": [],
      "name": "rice",
      "outputs": [
        {
          "internalType": "contract RiceToken",
          "name": "",
          "type": "address"
        }
      ],
      "stateMutability": "view",
      "type": "function"
    },
    {
      "inputs": [],
      "name": "ricePerBlock",
      "outputs": [
        {
          "internalType": "uint256",
          "name": "",
          "type": "uint256"
        }
      ],
      "stateMutability": "view",
      "type": "function"
    },
    {
      "inputs": [],
      "name": "startBlock",
      "outputs": [
        {
          "internalType": "uint256",
          "name": "",
          "type": "uint256"
        }
      ],
      "stateMutability": "view",
      "type": "function"
    },
    {
      "inputs": [],
      "name": "totalAllocPoint",
      "outputs": [
        {
          "internalType": "uint256",
          "name": "",
          "type": "uint256"
        }
      ],
      "stateMutability": "view",
      "type": "function"
    },
    {
      "inputs": [
        {
          "internalType": "address",
          "name": "newOwner",
          "type": "address"
        }
      ],
      "name": "transferOwnership",
      "outputs": [],
      "stateMutability": "nonpayable",
      "type": "function"
    },
    {
      "inputs": [
        {
          "internalType": "uint256",
          "name": "",
          "type": "uint256"
        },
        {
          "internalType": "address",
          "name": "",
          "type": "address"
        }
      ],
      "name": "userInfo",
      "outputs": [
        {
          "internalType": "uint256",
          "name": "amount",
          "type": "uint256"
        },
        {
          "internalType": "uint256",
          "name": "rewardDebt",
          "type": "uint256"
        }
      ],
      "stateMutability": "view",
      "type": "function"
    },
    {
      "inputs": [],
      "name": "poolLength",
      "outputs": [
        {
          "internalType": "uint256",
          "name": "",
          "type": "uint256"
        }
      ],
      "stateMutability": "view",
      "type": "function"
    },
    {
      "inputs": [
        {
          "internalType": "uint256",
          "name": "_allocPoint",
          "type": "uint256"
        },
        {
          "internalType": "contract IERC20",
          "name": "_lpToken",
          "type": "address"
        },
        {
          "internalType": "bool",
          "name": "_withUpdate",
          "type": "bool"
        }
      ],
      "name": "add",
      "outputs": [],
      "stateMutability": "nonpayable",
      "type": "function"
    },
    {
      "inputs": [
        {
          "internalType": "uint256",
          "name": "_pid",
          "type": "uint256"
        },
        {
          "internalType": "uint256",
          "name": "_allocPoint",
          "type": "uint256"
        },
        {
          "internalType": "bool",
          "name": "_withUpdate",
          "type": "bool"
        }
      ],
      "name": "set",
      "outputs": [],
      "stateMutability": "nonpayable",
      "type": "function"
    },
    {
      "inputs": [
        {
          "internalType": "contract IMigratorChef",
          "name": "_migrator",
          "type": "address"
        }
      ],
      "name": "setMigrator",
      "outputs": [],
      "stateMutability": "nonpayable",
      "type": "function"
    },
    {
      "inputs": [
        {
          "internalType": "uint256",
          "name": "_pid",
          "type": "uint256"
        }
      ],
      "name": "migrate",
      "outputs": [],
      "stateMutability": "nonpayable",
      "type": "function"
    },
    {
      "inputs": [
        {
          "internalType": "uint256",
          "name": "_from",
          "type": "uint256"
        },
        {
          "internalType": "uint256",
          "name": "_to",
          "type": "uint256"
        }
      ],
      "name": "getMultiplier",
      "outputs": [
        {
          "internalType": "uint256",
          "name": "",
          "type": "uint256"
        }
      ],
      "stateMutability": "view",
      "type": "function"
    },
    {
      "inputs": [
        {
          "internalType": "uint256",
          "name": "_pid",
          "type": "uint256"
        },
        {
          "internalType": "address",
          "name": "_user",
          "type": "address"
        }
      ],
      "name": "pendingRice",
      "outputs": [
        {
          "internalType": "uint256",
          "name": "",
          "type": "uint256"
        }
      ],
      "stateMutability": "view",
      "type": "function"
    },
    {
      "inputs": [],
      "name": "massUpdatePools",
      "outputs": [],
      "stateMutability": "nonpayable",
      "type": "function"
    },
    {
      "inputs": [
        {
          "internalType": "uint256",
          "name": "_pid",
          "type": "uint256"
        }
      ],
      "name": "updatePool",
      "outputs": [],
      "stateMutability": "nonpayable",
      "type": "function"
    },
    {
      "inputs": [
        {
          "internalType": "uint256",
          "name": "_pid",
          "type": "uint256"
        },
        {
          "internalType": "uint256",
          "name": "_amount",
          "type": "uint256"
        }
      ],
      "name": "deposit",
      "outputs": [],
      "stateMutability": "nonpayable",
      "type": "function"
    },
    {
      "inputs": [
        {
          "internalType": "uint256",
          "name": "_pid",
          "type": "uint256"
        },
        {
          "internalType": "uint256",
          "name": "_amount",
          "type": "uint256"
        }
      ],
      "name": "withdraw",
      "outputs": [],
      "stateMutability": "nonpayable",
      "type": "function"
    },
    {
      "inputs": [
        {
          "internalType": "uint256",
          "name": "_pid",
          "type": "uint256"
        }
      ],
      "name": "emergencyWithdraw",
      "outputs": [],
      "stateMutability": "nonpayable",
      "type": "function"
    },
    {
      "inputs": [
        {
          "internalType": "address",
          "name": "_devaddr",
          "type": "address"
        }
      ],
      "name": "dev",
      "outputs": [],
      "stateMutability": "nonpayable",
      "type": "function"
    }
  ],
  "bytecode": "0x608060405260006008553480156200001657600080fd5b5060405162002d2738038062002d2783398181016040528101906200003c9190620001db565b60006200004e6200018e60201b60201c565b9050806000806101000a81548173ffffffffffffffffffffffffffffffffffffffff021916908373ffffffffffffffffffffffffffffffffffffffff1602179055508073ffffffffffffffffffffffffffffffffffffffff16600073ffffffffffffffffffffffffffffffffffffffff167f8be0079c531659141344cd1fd0a4f28419497f9722a3daafe3b4186f6b6457e060405160405180910390a35084600160006101000a81548173ffffffffffffffffffffffffffffffffffffffff021916908373ffffffffffffffffffffffffffffffffffffffff16021790555083600260006101000a81548173ffffffffffffffffffffffffffffffffffffffff021916908373ffffffffffffffffffffffffffffffffffffffff1602179055508260048190555080600381905550816009819055505050505050620002fd565b600033905090565b600081519050620001a781620002af565b92915050565b600081519050620001be81620002c9565b92915050565b600081519050620001d581620002e3565b92915050565b600080600080600060a08688031215620001f457600080fd5b60006200020488828901620001ad565b9550506020620002178882890162000196565b94505060406200022a88828901620001c4565b93505060606200023d88828901620001c4565b92505060806200025088828901620001c4565b9150509295509295909350565b60006200026a8262000285565b9050919050565b60006200027e826200025d565b9050919050565b600073ffffffffffffffffffffffffffffffffffffffff82169050919050565b6000819050919050565b620002ba816200025d565b8114620002c657600080fd5b50565b620002d48162000271565b8114620002e057600080fd5b50565b620002ee81620002a5565b8114620002fa57600080fd5b50565b612a1a806200030d6000396000f3fe608060405234801561001057600080fd5b506004361061018e5760003560e01c80635edbd9de116100de5780638d88a90e1161009757806393f1a40b1161007157806393f1a40b14610428578063d49e77cd14610459578063e2bbb15814610477578063f2fde38b146104935761018e565b80638d88a90e146103be5780638da5cb5b146103da5780638dbb1e3a146103f85761018e565b80635edbd9de14610322578063630b5ba11461035257806364482f791461035c578063715018a6146103785780637cd07e47146103825780638aa28550146103a05761018e565b806323cf31181161014b578063476cc32411610125578063476cc324146102ae57806348cd4cb1146102cc57806351eb05a6146102ea5780635312ea8e146103065761018e565b806323cf31181461025a578063441a3e7014610276578063454b0608146102925761018e565b8063081e3eda146101935780630c8491da146101b15780631526fe27146101cf57806317caf6f1146102025780631aed6553146102205780631eaaa0451461023e575b600080fd5b61019b6104af565b6040516101a8919061256c565b60405180910390f35b6101b96104bc565b6040516101c6919061256c565b60405180910390f35b6101e960048036038101906101e49190612116565b6104c2565b6040516101f99493929190612431565b60405180910390f35b61020a610522565b604051610217919061256c565b60405180910390f35b610228610528565b604051610235919061256c565b60405180910390f35b610258600480360381019061025391906121a4565b61052e565b005b610274600480360381019061026f91906120ed565b6106b4565b005b610290600480360381019061028b91906121f3565b610774565b005b6102ac60048036038101906102a79190612116565b6109f1565b005b6102b6610dfa565b6040516102c39190612491565b60405180910390f35b6102d4610e20565b6040516102e1919061256c565b60405180910390f35b61030460048036038101906102ff9190612116565b610e26565b005b610320600480360381019061031b9190612116565b61111d565b005b61033c60048036038101906103379190612168565b6112df565b604051610349919061256c565b60405180910390f35b61035a6114fa565b005b6103766004803603810190610371919061222f565b61152d565b005b610380611677565b005b61038a6117b1565b6040516103979190612476565b60405180910390f35b6103a86117d7565b6040516103b5919061256c565b60405180910390f35b6103d860048036038101906103d39190612072565b6117dc565b005b6103e26118b0565b6040516103ef919061239b565b60405180910390f35b610412600480360381019061040d91906121f3565b6118d9565b60405161041f919061256c565b60405180910390f35b610442600480360381019061043d9190612168565b61195a565b604051610450929190612587565b60405180910390f35b61046161198b565b60405161046e919061239b565b60405180910390f35b610491600480360381019061048c91906121f3565b6119b1565b005b6104ad60048036038101906104a89190612072565b611bf7565b005b6000600680549050905090565b60045481565b600681815481106104d257600080fd5b90600052602060002090600402016000915090508060000160009054906101000a900473ffffffffffffffffffffffffffffffffffffffff16908060010154908060020154908060030154905084565b60085481565b60035481565b610536611da0565b73ffffffffffffffffffffffffffffffffffffffff166105546118b0565b73ffffffffffffffffffffffffffffffffffffffff16146105aa576040517f08c379a00000000000000000000000000000000000000000000000000000000081526004016105a1906124ec565b60405180910390fd5b80156105b9576105b86114fa565b5b600060095443116105cc576009546105ce565b435b9050836008546105de91906125c1565b600881905550600660405180608001604052808573ffffffffffffffffffffffffffffffffffffffff1681526020018681526020018381526020016000815250908060018154018082558091505060019003906000526020600020906004020160009091909190915060008201518160000160006101000a81548173ffffffffffffffffffffffffffffffffffffffff021916908373ffffffffffffffffffffffffffffffffffffffff160217905550602082015181600101556040820151816002015560608201518160030155505050505050565b6106bc611da0565b73ffffffffffffffffffffffffffffffffffffffff166106da6118b0565b73ffffffffffffffffffffffffffffffffffffffff1614610730576040517f08c379a0000000000000000000000000000000000000000000000000000000008152600401610727906124ec565b60405180910390fd5b80600560006101000a81548173ffffffffffffffffffffffffffffffffffffffff021916908373ffffffffffffffffffffffffffffffffffffffff16021790555050565b6000600683815481106107b0577f4e487b7100000000000000000000000000000000000000000000000000000000600052603260045260246000fd5b9060005260206000209060040201905060006007600085815260200190815260200160002060003373ffffffffffffffffffffffffffffffffffffffff1673ffffffffffffffffffffffffffffffffffffffff1681526020019081526020016000209050828160000154101561085b576040517f08c379a00000000000000000000000000000000000000000000000000000000081526004016108529061250c565b60405180910390fd5b61086484610e26565b6000816001015464e8d4a51000846003015484600001546108859190612648565b61088f9190612617565b61089991906126a2565b90506108a53382611da8565b8382600001546108b591906126a2565b826000018190555064e8d4a51000836003015483600001546108d79190612648565b6108e19190612617565b82600101819055508260000160009054906101000a900473ffffffffffffffffffffffffffffffffffffffff1673ffffffffffffffffffffffffffffffffffffffff1663a9059cbb33866040518363ffffffff1660e01b81526004016109489291906123ed565b602060405180830381600087803b15801561096257600080fd5b505af1158015610976573d6000803e3d6000fd5b505050506040513d601f19601f8201168201806040525081019061099a919061209b565b50843373ffffffffffffffffffffffffffffffffffffffff167ff279e6a1f5e320cca91135676d9cb6e44ca8a08c0b88342bcdb1144f6511b568866040516109e2919061256c565b60405180910390a35050505050565b600073ffffffffffffffffffffffffffffffffffffffff16600560009054906101000a900473ffffffffffffffffffffffffffffffffffffffff1673ffffffffffffffffffffffffffffffffffffffff161415610a83576040517f08c379a0000000000000000000000000000000000000000000000000000000008152600401610a7a9061254c565b60405180910390fd5b600060068281548110610abf577f4e487b7100000000000000000000000000000000000000000000000000000000600052603260045260246000fd5b9060005260206000209060040201905060008160000160009054906101000a900473ffffffffffffffffffffffffffffffffffffffff16905060008173ffffffffffffffffffffffffffffffffffffffff166370a08231306040518263ffffffff1660e01b8152600401610b33919061239b565b60206040518083038186803b158015610b4b57600080fd5b505afa158015610b5f573d6000803e3d6000fd5b505050506040513d601f19601f82011682018060405250810190610b83919061213f565b90508173ffffffffffffffffffffffffffffffffffffffff1663095ea7b3600560009054906101000a900473ffffffffffffffffffffffffffffffffffffffff16836040518363ffffffff1660e01b8152600401610be29291906123ed565b602060405180830381600087803b158015610bfc57600080fd5b505af1158015610c10573d6000803e3d6000fd5b505050506040513d601f19601f82011682018060405250810190610c34919061209b565b506000600560009054906101000a900473ffffffffffffffffffffffffffffffffffffffff1673ffffffffffffffffffffffffffffffffffffffff1663ce5494bb846040518263ffffffff1660e01b8152600401610c929190612416565b602060405180830381600087803b158015610cac57600080fd5b505af1158015610cc0573d6000803e3d6000fd5b505050506040513d601f19601f82011682018060405250810190610ce491906120c4565b90508073ffffffffffffffffffffffffffffffffffffffff166370a08231306040518263ffffffff1660e01b8152600401610d1f919061239b565b60206040518083038186803b158015610d3757600080fd5b505afa158015610d4b573d6000803e3d6000fd5b505050506040513d601f19601f82011682018060405250810190610d6f919061213f565b8214610db0576040517f08c379a0000000000000000000000000000000000000000000000000000000008152600401610da79061252c565b60405180910390fd5b808460000160006101000a81548173ffffffffffffffffffffffffffffffffffffffff021916908373ffffffffffffffffffffffffffffffffffffffff1602179055505050505050565b600160009054906101000a900473ffffffffffffffffffffffffffffffffffffffff1681565b60095481565b600060068281548110610e62577f4e487b7100000000000000000000000000000000000000000000000000000000600052603260045260246000fd5b9060005260206000209060040201905080600201544311610e83575061111a565b60008160000160009054906101000a900473ffffffffffffffffffffffffffffffffffffffff1673ffffffffffffffffffffffffffffffffffffffff166370a08231306040518263ffffffff1660e01b8152600401610ee2919061239b565b60206040518083038186803b158015610efa57600080fd5b505afa158015610f0e573d6000803e3d6000fd5b505050506040513d601f19601f82011682018060405250810190610f32919061213f565b90506000811415610f4d57438260020181905550505061111a565b6000610f5d8360020154436118d9565b90506000600854846001015460045484610f779190612648565b610f819190612648565b610f8b9190612617565b9050600160009054906101000a900473ffffffffffffffffffffffffffffffffffffffff1673ffffffffffffffffffffffffffffffffffffffff166340c10f19600260009054906101000a900473ffffffffffffffffffffffffffffffffffffffff16600a84610ffb9190612617565b6040518363ffffffff1660e01b81526004016110189291906123ed565b600060405180830381600087803b15801561103257600080fd5b505af1158015611046573d6000803e3d6000fd5b50505050600160009054906101000a900473ffffffffffffffffffffffffffffffffffffffff1673ffffffffffffffffffffffffffffffffffffffff166340c10f1930836040518363ffffffff1660e01b81526004016110a79291906123ed565b600060405180830381600087803b1580156110c157600080fd5b505af11580156110d5573d6000803e3d6000fd5b505050508264e8d4a51000826110eb9190612648565b6110f59190612617565b846003015461110491906125c1565b8460030181905550438460020181905550505050505b50565b600060068281548110611159577f4e487b7100000000000000000000000000000000000000000000000000000000600052603260045260246000fd5b9060005260206000209060040201905060006007600084815260200190815260200160002060003373ffffffffffffffffffffffffffffffffffffffff1673ffffffffffffffffffffffffffffffffffffffff16815260200190815260200160002090508160000160009054906101000a900473ffffffffffffffffffffffffffffffffffffffff1673ffffffffffffffffffffffffffffffffffffffff1663a9059cbb3383600001546040518363ffffffff1660e01b81526004016112209291906123ed565b602060405180830381600087803b15801561123a57600080fd5b505af115801561124e573d6000803e3d6000fd5b505050506040513d601f19601f82011682018060405250810190611272919061209b565b50823373ffffffffffffffffffffffffffffffffffffffff167fbb757047c2b5f3974fe26b7c10f732e7bce710b0952a71082702781e62ae059583600001546040516112be919061256c565b60405180910390a36000816000018190555060008160010181905550505050565b6000806006848154811061131c577f4e487b7100000000000000000000000000000000000000000000000000000000600052603260045260246000fd5b9060005260206000209060040201905060006007600086815260200190815260200160002060008573ffffffffffffffffffffffffffffffffffffffff1673ffffffffffffffffffffffffffffffffffffffff168152602001908152602001600020905060008260030154905060008360000160009054906101000a900473ffffffffffffffffffffffffffffffffffffffff1673ffffffffffffffffffffffffffffffffffffffff166370a08231306040518263ffffffff1660e01b81526004016113e8919061239b565b60206040518083038186803b15801561140057600080fd5b505afa158015611414573d6000803e3d6000fd5b505050506040513d601f19601f82011682018060405250810190611438919061213f565b905083600201544311801561144e575060008114155b156114bf5760006114638560020154436118d9565b9050600060085486600101546004548461147d9190612648565b6114879190612648565b6114919190612617565b90508264e8d4a51000826114a59190612648565b6114af9190612617565b846114ba91906125c1565b935050505b826001015464e8d4a510008385600001546114da9190612648565b6114e49190612617565b6114ee91906126a2565b94505050505092915050565b6000600680549050905060005b818110156115295761151881610e26565b80611522906127ae565b9050611507565b5050565b611535611da0565b73ffffffffffffffffffffffffffffffffffffffff166115536118b0565b73ffffffffffffffffffffffffffffffffffffffff16146115a9576040517f08c379a00000000000000000000000000000000000000000000000000000000081526004016115a0906124ec565b60405180910390fd5b80156115b8576115b76114fa565b5b81600684815481106115f3577f4e487b7100000000000000000000000000000000000000000000000000000000600052603260045260246000fd5b90600052602060002090600402016001015460085461161291906126a2565b61161c91906125c1565b600881905550816006848154811061165d577f4e487b7100000000000000000000000000000000000000000000000000000000600052603260045260246000fd5b906000526020600020906004020160010181905550505050565b61167f611da0565b73ffffffffffffffffffffffffffffffffffffffff1661169d6118b0565b73ffffffffffffffffffffffffffffffffffffffff16146116f3576040517f08c379a00000000000000000000000000000000000000000000000000000000081526004016116ea906124ec565b60405180910390fd5b600073ffffffffffffffffffffffffffffffffffffffff1660008054906101000a900473ffffffffffffffffffffffffffffffffffffffff1673ffffffffffffffffffffffffffffffffffffffff167f8be0079c531659141344cd1fd0a4f28419497f9722a3daafe3b4186f6b6457e060405160405180910390a360008060006101000a81548173ffffffffffffffffffffffffffffffffffffffff021916908373ffffffffffffffffffffffffffffffffffffffff160217905550565b600560009054906101000a900473ffffffffffffffffffffffffffffffffffffffff1681565b600a81565b600260009054906101000a900473ffffffffffffffffffffffffffffffffffffffff1673ffffffffffffffffffffffffffffffffffffffff163373ffffffffffffffffffffffffffffffffffffffff161461186c576040517f08c379a0000000000000000000000000000000000000000000000000000000008152600401611863906124cc565b60405180910390fd5b80600260006101000a81548173ffffffffffffffffffffffffffffffffffffffff021916908373ffffffffffffffffffffffffffffffffffffffff16021790555050565b60008060009054906101000a900473ffffffffffffffffffffffffffffffffffffffff16905090565b6000600354821161190357600a836118f19190612648565b826118fc91906126a2565b9050611954565b600354831061191f57828261191891906126a2565b9050611954565b6003548261192d91906126a2565b600a8461193a9190612648565b60035461194791906126a2565b61195191906125c1565b90505b92915050565b6007602052816000526040600020602052806000526040600020600091509150508060000154908060010154905082565b600260009054906101000a900473ffffffffffffffffffffffffffffffffffffffff1681565b6000600683815481106119ed577f4e487b7100000000000000000000000000000000000000000000000000000000600052603260045260246000fd5b9060005260206000209060040201905060006007600085815260200190815260200160002060003373ffffffffffffffffffffffffffffffffffffffff1673ffffffffffffffffffffffffffffffffffffffff1681526020019081526020016000209050611a5a84610e26565b600081600001541115611aaa576000816001015464e8d4a5100084600301548460000154611a889190612648565b611a929190612617565b611a9c91906126a2565b9050611aa83382611da8565b505b8160000160009054906101000a900473ffffffffffffffffffffffffffffffffffffffff1673ffffffffffffffffffffffffffffffffffffffff166323b872dd3330866040518463ffffffff1660e01b8152600401611b0b939291906123b6565b602060405180830381600087803b158015611b2557600080fd5b505af1158015611b39573d6000803e3d6000fd5b505050506040513d601f19601f82011682018060405250810190611b5d919061209b565b50828160000154611b6e91906125c1565b816000018190555064e8d4a5100082600301548260000154611b909190612648565b611b9a9190612617565b8160010181905550833373ffffffffffffffffffffffffffffffffffffffff167f90890809c654f11d6e72a28fa60149770a0d11ec6c92319d6ceb2bb0a4ea1a1585604051611be9919061256c565b60405180910390a350505050565b611bff611da0565b73ffffffffffffffffffffffffffffffffffffffff16611c1d6118b0565b73ffffffffffffffffffffffffffffffffffffffff1614611c73576040517f08c379a0000000000000000000000000000000000000000000000000000000008152600401611c6a906124ec565b60405180910390fd5b600073ffffffffffffffffffffffffffffffffffffffff168173ffffffffffffffffffffffffffffffffffffffff161415611ce3576040517f08c379a0000000000000000000000000000000000000000000000000000000008152600401611cda906124ac565b60405180910390fd5b8073ffffffffffffffffffffffffffffffffffffffff1660008054906101000a900473ffffffffffffffffffffffffffffffffffffffff1673ffffffffffffffffffffffffffffffffffffffff167f8be0079c531659141344cd1fd0a4f28419497f9722a3daafe3b4186f6b6457e060405160405180910390a3806000806101000a81548173ffffffffffffffffffffffffffffffffffffffff021916908373ffffffffffffffffffffffffffffffffffffffff16021790555050565b600033905090565b6000600160009054906101000a900473ffffffffffffffffffffffffffffffffffffffff1673ffffffffffffffffffffffffffffffffffffffff166370a08231306040518263ffffffff1660e01b8152600401611e05919061239b565b60206040518083038186803b158015611e1d57600080fd5b505afa158015611e31573d6000803e3d6000fd5b505050506040513d601f19601f82011682018060405250810190611e55919061213f565b905080821115611f1457600160009054906101000a900473ffffffffffffffffffffffffffffffffffffffff1673ffffffffffffffffffffffffffffffffffffffff1663a9059cbb84836040518363ffffffff1660e01b8152600401611ebc9291906123ed565b602060405180830381600087803b158015611ed657600080fd5b505af1158015611eea573d6000803e3d6000fd5b505050506040513d601f19601f82011682018060405250810190611f0e919061209b565b50611fc5565b600160009054906101000a900473ffffffffffffffffffffffffffffffffffffffff1673ffffffffffffffffffffffffffffffffffffffff1663a9059cbb84846040518363ffffffff1660e01b8152600401611f719291906123ed565b602060405180830381600087803b158015611f8b57600080fd5b505af1158015611f9f573d6000803e3d6000fd5b505050506040513d601f19601f82011682018060405250810190611fc3919061209b565b505b505050565b600081359050611fd981612971565b92915050565b600081359050611fee81612988565b92915050565b60008151905061200381612988565b92915050565b6000813590506120188161299f565b92915050565b60008151905061202d8161299f565b92915050565b600081359050612042816129b6565b92915050565b600081359050612057816129cd565b92915050565b60008151905061206c816129cd565b92915050565b60006020828403121561208457600080fd5b600061209284828501611fca565b91505092915050565b6000602082840312156120ad57600080fd5b60006120bb84828501611ff4565b91505092915050565b6000602082840312156120d657600080fd5b60006120e48482850161201e565b91505092915050565b6000602082840312156120ff57600080fd5b600061210d84828501612033565b91505092915050565b60006020828403121561212857600080fd5b600061213684828501612048565b91505092915050565b60006020828403121561215157600080fd5b600061215f8482850161205d565b91505092915050565b6000806040838503121561217b57600080fd5b600061218985828601612048565b925050602061219a85828601611fca565b9150509250929050565b6000806000606084860312156121b957600080fd5b60006121c786828701612048565b93505060206121d886828701612009565b92505060406121e986828701611fdf565b9150509250925092565b6000806040838503121561220657600080fd5b600061221485828601612048565b925050602061222585828601612048565b9150509250929050565b60008060006060848603121561224457600080fd5b600061225286828701612048565b935050602061226386828701612048565b925050604061227486828701611fdf565b9150509250925092565b612287816126d6565b82525050565b61229681612742565b82525050565b6122a581612766565b82525050565b6122b48161278a565b82525050565b60006122c76026836125b0565b91506122d282612855565b604082019050919050565b60006122ea6009836125b0565b91506122f5826128a4565b602082019050919050565b600061230d6020836125b0565b9150612318826128cd565b602082019050919050565b60006123306012836125b0565b915061233b826128f6565b602082019050919050565b6000612353600c836125b0565b915061235e8261291f565b602082019050919050565b60006123766014836125b0565b915061238182612948565b602082019050919050565b61239581612738565b82525050565b60006020820190506123b0600083018461227e565b92915050565b60006060820190506123cb600083018661227e565b6123d8602083018561227e565b6123e5604083018461238c565b949350505050565b6000604082019050612402600083018561227e565b61240f602083018461238c565b9392505050565b600060208201905061242b600083018461228d565b92915050565b6000608082019050612446600083018761228d565b612453602083018661238c565b612460604083018561238c565b61246d606083018461238c565b95945050505050565b600060208201905061248b600083018461229c565b92915050565b60006020820190506124a660008301846122ab565b92915050565b600060208201905081810360008301526124c5816122ba565b9050919050565b600060208201905081810360008301526124e5816122dd565b9050919050565b6000602082019050818103600083015261250581612300565b9050919050565b6000602082019050818103600083015261252581612323565b9050919050565b6000602082019050818103600083015261254581612346565b9050919050565b6000602082019050818103600083015261256581612369565b9050919050565b6000602082019050612581600083018461238c565b92915050565b600060408201905061259c600083018561238c565b6125a9602083018461238c565b9392505050565b600082825260208201905092915050565b60006125cc82612738565b91506125d783612738565b9250827fffffffffffffffffffffffffffffffffffffffffffffffffffffffffffffffff0382111561260c5761260b6127f7565b5b828201905092915050565b600061262282612738565b915061262d83612738565b92508261263d5761263c612826565b5b828204905092915050565b600061265382612738565b915061265e83612738565b9250817fffffffffffffffffffffffffffffffffffffffffffffffffffffffffffffffff0483118215151615612697576126966127f7565b5b828202905092915050565b60006126ad82612738565b91506126b883612738565b9250828210156126cb576126ca6127f7565b5b828203905092915050565b60006126e182612718565b9050919050565b60008115159050919050565b60006126ff826126d6565b9050919050565b6000612711826126d6565b9050919050565b600073ffffffffffffffffffffffffffffffffffffffff82169050919050565b6000819050919050565b600061274d82612754565b9050919050565b600061275f82612718565b9050919050565b600061277182612778565b9050919050565b600061278382612718565b9050919050565b60006127958261279c565b9050919050565b60006127a782612718565b9050919050565b60006127b982612738565b91507fffffffffffffffffffffffffffffffffffffffffffffffffffffffffffffffff8214156127ec576127eb6127f7565b5b600182019050919050565b7f4e487b7100000000000000000000000000000000000000000000000000000000600052601160045260246000fd5b7f4e487b7100000000000000000000000000000000000000000000000000000000600052601260045260246000fd5b7f4f776e61626c653a206e6577206f776e657220697320746865207a65726f206160008201527f6464726573730000000000000000000000000000000000000000000000000000602082015250565b7f6465763a207775743f0000000000000000000000000000000000000000000000600082015250565b7f4f776e61626c653a2063616c6c6572206973206e6f7420746865206f776e6572600082015250565b7f77697468647261773a206e6f7420676f6f640000000000000000000000000000600082015250565b7f6d6967726174653a206261640000000000000000000000000000000000000000600082015250565b7f6d6967726174653a206e6f206d69677261746f72000000000000000000000000600082015250565b61297a816126d6565b811461298557600080fd5b50565b612991816126e8565b811461299c57600080fd5b50565b6129a8816126f4565b81146129b357600080fd5b50565b6129bf81612706565b81146129ca57600080fd5b50565b6129d681612738565b81146129e157600080fd5b5056fea264697066735822122043b4a1d066494b6dcdc26a8b15f6c513b67b3d16b48682b89af7fc973d614aad64736f6c63430008040033",
  "immutableReferences": {},
  "source": "// SPDX-License-Identifier: MIT\n\npragma solidity ^0.8.0;\n\nimport \"@openzeppelin/contracts/token/ERC20/IERC20.sol\";\nimport \"@openzeppelin/contracts/access/Ownable.sol\";\nimport \"./RiceToken.sol\";\n\ninterface IMigratorChef {\n    function migrate(IERC20 token) external returns (IERC20);\n}\n\ncontract RiceField is Ownable {\n    // Info of each user.\n    struct UserInfo {\n        uint256 amount; // How many LP tokens the user has provided.\n        uint256 rewardDebt; // Reward debt. See explanation below.\n    }\n    // Info of each pool.\n    struct PoolInfo {\n        IERC20 lpToken; // Address of LP token contract.\n        uint256 allocPoint; // How many allocation points assigned to this pool. SUSHIs to distribute per block.\n        uint256 lastRewardBlock; // Last block number that SUSHIs distribution occurs.\n        uint256 accRicePerShare; // Accumulated SUSHIs per share, times 1e12. See below.\n    }\n    // The SUSHI TOKEN!\n    RiceToken public rice;\n    // Dev address.\n    address public devaddr;\n    // Block number when bonus SUSHI period ends.\n    uint256 public bonusEndBlock;\n    // SUSHI tokens created per block.\n    uint256 public ricePerBlock;\n    // Bonus muliplier for early rice makers.\n    uint256 public constant BONUS_MULTIPLIER = 10;\n    // The migrator contract. It has a lot of power. Can only be set through governance (owner).\n    IMigratorChef public migrator;\n    // Info of each pool.\n    PoolInfo[] public poolInfo;\n    // Info of each user that stakes LP tokens.\n    mapping(uint256 => mapping(address => UserInfo)) public userInfo;\n    // Total allocation poitns. Must be the sum of all allocation points in all pools.\n    uint256 public totalAllocPoint = 0;\n    // The block number when SUSHI mining starts.\n    uint256 public startBlock;\n    event Deposit(address indexed user, uint256 indexed pid, uint256 amount);\n    event Withdraw(address indexed user, uint256 indexed pid, uint256 amount);\n    event EmergencyWithdraw(\n        address indexed user,\n        uint256 indexed pid,\n        uint256 amount\n    );\n\n    constructor(\n        RiceToken _rice,\n        address _devaddr,\n        uint256 _ricePerBlock,\n        uint256 _startBlock,\n        uint256 _bonusEndBlock\n    ) {\n        rice = _rice;\n        devaddr = _devaddr;\n        ricePerBlock = _ricePerBlock;\n        bonusEndBlock = _bonusEndBlock;\n        startBlock = _startBlock;\n    }\n\n    function poolLength() external view returns (uint256) {\n        return poolInfo.length;\n    }\n\n    // Add a new lp to the pool. Can only be called by the owner.\n    // XXX DO NOT add the same LP token more than once. Rewards will be messed up if you do.\n    function add(\n        uint256 _allocPoint,\n        IERC20 _lpToken,\n        bool _withUpdate\n    ) public onlyOwner {\n        if (_withUpdate) {\n            massUpdatePools();\n        }\n        uint256 lastRewardBlock =\n            block.number > startBlock ? block.number : startBlock;\n        totalAllocPoint = totalAllocPoint + (_allocPoint);\n        poolInfo.push(\n            PoolInfo({\n                lpToken: _lpToken,\n                allocPoint: _allocPoint,\n                lastRewardBlock: lastRewardBlock,\n                accRicePerShare: 0\n            })\n        );\n    }\n\n    // Update the given pool's SUSHI allocation point. Can only be called by the owner.\n    function set(\n        uint256 _pid,\n        uint256 _allocPoint,\n        bool _withUpdate\n    ) public onlyOwner {\n        if (_withUpdate) {\n            massUpdatePools();\n        }\n        totalAllocPoint = totalAllocPoint - (poolInfo[_pid].allocPoint) + (\n            _allocPoint\n        );\n        poolInfo[_pid].allocPoint = _allocPoint;\n    }\n\n    // Set the migrator contract. Can only be called by the owner.\n    function setMigrator(IMigratorChef _migrator) public onlyOwner {\n        migrator = _migrator;\n    }\n\n    // Migrate lp token to another lp contract. Can be called by anyone. We trust that migrator contract is good.\n    function migrate(uint256 _pid) public {\n        require(address(migrator) != address(0), \"migrate: no migrator\");\n        PoolInfo storage pool = poolInfo[_pid];\n        IERC20 lpToken = pool.lpToken;\n        uint256 bal = lpToken.balanceOf(address(this));\n        lpToken.approve(address(migrator), bal);\n        IERC20 newLpToken = migrator.migrate(lpToken);\n        require(bal == newLpToken.balanceOf(address(this)), \"migrate: bad\");\n        pool.lpToken = newLpToken;\n    }\n\n    // Return reward multiplier over the given _from to _to block.\n    function getMultiplier(uint256 _from, uint256 _to)\n        public\n        view\n        returns (uint256)\n    {\n        if (_to <= bonusEndBlock) {\n            return _to - (_from) * (BONUS_MULTIPLIER);\n        } else if (_from >= bonusEndBlock) {\n            return _to - (_from);\n        } else {\n            return\n                bonusEndBlock - (_from) * (BONUS_MULTIPLIER) + (\n                    _to - (bonusEndBlock)\n                );\n        }\n    }\n\n    // View function to see pending SUSHIs on frontend.\n    function pendingRice(uint256 _pid, address _user)\n        external\n        view\n        returns (uint256)\n    {\n        PoolInfo storage pool = poolInfo[_pid];\n        UserInfo storage user = userInfo[_pid][_user];\n        uint256 accRicePerShare = pool.accRicePerShare;\n        uint256 lpSupply = pool.lpToken.balanceOf(address(this));\n        if (block.number > pool.lastRewardBlock && lpSupply != 0) {\n            uint256 multiplier =\n                getMultiplier(pool.lastRewardBlock, block.number);\n            uint256 riceReward =\n                multiplier * (ricePerBlock) * (pool.allocPoint) / (\n                    totalAllocPoint\n                );\n            accRicePerShare = accRicePerShare + (\n                riceReward * (1e12) / (lpSupply)\n            );\n        }\n        return user.amount * (accRicePerShare) / (1e12) - (user.rewardDebt);\n    }\n\n    // Update reward vairables for all pools. Be careful of gas spending!\n    function massUpdatePools() public {\n        uint256 length = poolInfo.length;\n        for (uint256 pid = 0; pid < length; ++pid) {\n            updatePool(pid);\n        }\n    }\n\n    // Update reward variables of the given pool to be up-to-date.\n    function updatePool(uint256 _pid) public {\n        PoolInfo storage pool = poolInfo[_pid];\n        if (block.number <= pool.lastRewardBlock) {\n            return;\n        }\n        uint256 lpSupply = pool.lpToken.balanceOf(address(this));\n        if (lpSupply == 0) {\n            pool.lastRewardBlock = block.number;\n            return;\n        }\n        uint256 multiplier = getMultiplier(pool.lastRewardBlock, block.number);\n        uint256 riceReward =\n            multiplier * (ricePerBlock) * (pool.allocPoint) / (\n                totalAllocPoint\n            );\n        rice.mint(devaddr, riceReward / (10));\n        rice.mint(address(this), riceReward);\n        pool.accRicePerShare = pool.accRicePerShare + (\n            riceReward * (1e12) / (lpSupply)\n        );\n        pool.lastRewardBlock = block.number;\n    }\n\n    // Deposit LP tokens to MasterChef for SUSHI allocation.\n    function deposit(uint256 _pid, uint256 _amount) public {\n        PoolInfo storage pool = poolInfo[_pid];\n        UserInfo storage user = userInfo[_pid][msg.sender];\n        updatePool(_pid);\n        if (user.amount > 0) {\n            uint256 pending =\n                user.amount * (pool.accRicePerShare) / (1e12) - (\n                    user.rewardDebt\n                );\n            safeRiceTransfer(msg.sender, pending);\n        }\n        pool.lpToken.transferFrom(\n            address(msg.sender),\n            address(this),\n            _amount\n        );\n        user.amount = user.amount + (_amount);\n        user.rewardDebt = user.amount * (pool.accRicePerShare) / (1e12);\n        emit Deposit(msg.sender, _pid, _amount);\n    }\n\n    // Withdraw LP tokens from MasterChef.\n    function withdraw(uint256 _pid, uint256 _amount) public {\n        PoolInfo storage pool = poolInfo[_pid];\n        UserInfo storage user = userInfo[_pid][msg.sender];\n        require(user.amount >= _amount, \"withdraw: not good\");\n        updatePool(_pid);\n        uint256 pending =\n            user.amount * (pool.accRicePerShare) / (1e12) - (\n                user.rewardDebt\n            );\n        safeRiceTransfer(msg.sender, pending);\n        user.amount = user.amount - (_amount);\n        user.rewardDebt = user.amount * (pool.accRicePerShare) / (1e12);\n        pool.lpToken.transfer(address(msg.sender), _amount);\n        emit Withdraw(msg.sender, _pid, _amount);\n    }\n\n    // Withdraw without caring about rewards. EMERGENCY ONLY.\n    function emergencyWithdraw(uint256 _pid) public {\n        PoolInfo storage pool = poolInfo[_pid];\n        UserInfo storage user = userInfo[_pid][msg.sender];\n        pool.lpToken.transfer(address(msg.sender), user.amount);\n        emit EmergencyWithdraw(msg.sender, _pid, user.amount);\n        user.amount = 0;\n        user.rewardDebt = 0;\n    }\n\n    // Safe rice transfer function, just in case if rounding error causes pool to not have enough SUSHIs.\n    function safeRiceTransfer(address _to, uint256 _amount) internal {\n        uint256 riceBal = rice.balanceOf(address(this));\n        if (_amount > riceBal) {\n            rice.transfer(_to, riceBal);\n        } else {\n            rice.transfer(_to, _amount);\n        }\n    }\n\n    // Update dev address by the previous dev.\n    function dev(address _devaddr) public {\n        require(msg.sender == devaddr, \"dev: wut?\");\n        devaddr = _devaddr;\n    }\n}\n",
  "sourcePath": "/home/carsoncase/Documents/programming/blockchain/DOGEN/RiceFarm/contracts/RiceField.sol",
  "compiler": {
    "name": "solc",
    "version": "0.8.4+commit.c7e474f2.Emscripten.clang"
  },
  "schemaVersion": "3.4.1",
  "updatedAt": "2021-05-23T04:49:04.078Z",
  "devdoc": {
    "kind": "dev",
    "methods": {
      "owner()": {
        "details": "Returns the address of the current owner."
      },
      "renounceOwnership()": {
        "details": "Leaves the contract without owner. It will not be possible to call `onlyOwner` functions anymore. Can only be called by the current owner. NOTE: Renouncing ownership will leave the contract without an owner, thereby removing any functionality that is only available to the owner."
      },
      "transferOwnership(address)": {
        "details": "Transfers ownership of the contract to a new account (`newOwner`). Can only be called by the current owner."
      }
    },
    "version": 1
  },
  "userdoc": {
    "kind": "user",
    "methods": {},
    "version": 1
  }
}